:020000040800F2
:1000000080070020D5000008651F0008D11C0008EB
:1000100000000000000000000000000000000000E0
:100020000000000000000000000000003729000868
:10003000000000000000000005200008D132000888
:10004000E7000008E7000008E7000008E7000008F4
:10005000E7000008E7000008E70000084108000882
:10006000E7000008E7000008E7000008E7000008D4
:10007000E7000008E700000800000000C1330008A6
:1000800000000000E7000008000000000000000081
:10009000E700000800000000E7000008E700000893
:1000A000E7000008E7000008E7000008E700000894
:1000B000E7000008E7000008E7000008E700000884
:1000C0000348854600F04CFB00480047F13D00081E
:1000D000800700200448804704480047FEE7FEE709
:1000E000FEE7FEE7FEE7FEE76D330008C10000080B
:1000F00030B50B46014600202022012409E00D46C0
:10010000D5409D4205D31D469540491B2546954047
:1001100040191546521E002DF1DC30BDF0B51FB45C
:100120000646002082B005464024019100901BE065
:10013000019922460F46304600F050FA049A059B7A
:10014000801A994110D310461946224600F036FA1B
:10015000361A8F410197224601200021009F00F0AE
:100160002DFA38184D4100902046641E0028DFDC2F
:10017000019B00982946324607B0F0BD03460B4369
:100180009B0703D009E008C9121F08C0042AFAD24D
:1001900003E00B780370401C491C521EF9D27047D3
:1001A000D2B201E00270401C491EFBD2704700220F
:1001B000F6E710B513460A4604461946FFF7F0FF66
:1001C000204610BDF0B507460846584087B0C00F1E
:1001D000049048000E46590040084908BC1A88415E
:1001E00005D2384631461E4617460B460246580091
:1001F000400810434CD0300D039040055900400D8D
:10020000490D0590401A0290402872DA1803012126
:10021000000B09050843019004980092002805D0BE
:100220000199524200208841009201900298402199
:100230000A1A0199009800F0C1F905460C466B4670
:1002400007CB00F0DCF9C0197141039A0E0D0023B1
:10025000D71756401A467A40164344D0049A002ACB
:100260002DD0029A012A039A15DC1205C01A914179
:1002700001263605001C7141D20F059ED20700935E
:10028000019202962A46234600F0D9F907B0F0BD44
:1002900038463146FAE71605224A0F46B218C01A08
:1002A000B74101210905001C4F4100187F4111464B
:1002B00018187941E20F10436D19644113E0E20709
:1002C0006D0815436408C2071443039A01261205FA
:1002D000C01A91413605001C7141CE0740083043D9
:1002E0004908C01851412A46234600F09BF9CDE742
:1002F000FFE7049801224000C117121A00238B4126
:1003000004983146C417381AA141EEE730B40124ED
:10031000E407634030BC55E730B40124E407614092
:1003200030BC4FE70000E0FFF0B51FB488B00B9978
:100330000998002448400999C00F490049080991CB
:10034000C0070B990090490049080B91099908983A
:10035000A64608431CD00B990A98084318D0099860
:1003600001244000420D4800410D09982405000376
:10037000000B204309900B980003000B20430B90C7
:1003800050181C494018002201901446104605E000
:10039000002001460DB0F0BD032801DA034600E05D
:1003A00003239C46C11A0AAE0AE05F0008ADED5B6C
:1003B0004F00F75B7D430027AA187C41491C5B1E58
:1003C0006145F2DD410004AB5A522104120C0A438C
:1003D000240C401C0828DFDB01980290009970462D
:1003E00001910090059B049A0799069800F027F95F
:1003F000D0E700000DFCFFFFF0B50C465C4085B077
:10040000E40FE40703944C00002664085900944666
:10041000490802460296224321D062460A431ED072
:100420006200570D4A000E032303550D01240246B6
:100430002C492405781B1B0B360B401823432643FD
:10044000614600901C46501AB44103D30098401CEA
:10045000009002E0921800985B41002803DA002027
:10046000014605B0F0BD002001210905074686467A
:1004700011E064461D46141BB54106D36546521B68
:10048000B341744607430C43A646CD0740084908CC
:10049000284392185B4105460D43EAD110461843A4
:1004A00013D06046194650407140084306D060465C
:1004B000101AB34106D20122002306E000220123D4
:1004C000DB0702E00122D243531000987446010575
:1004D000381C6141029C039D0019694100F0A2F89B
:1004E000BFE70000FD03000070B54B005B0803434D
:1004F0000BD04B005C0D002633466542B341D41748
:10050000AD1AA34102DB0020014670BD1205301870
:10051000514170BD0EB5C217C10F5040CA074018F7
:100520000021054B0293019200910A460B4600F010
:1005300086F803B000BD0000330400000EB5054985
:100540000291002100910A460B46019100F077F8D4
:1005500003B000BD330400004A0009030123090B66
:100560001B051943094B10B5520D9A4201DA0020C0
:1005700010BD064B34339A4203DC9A1A00F02EF871
:1005800010BD03495118884010BD0000FF03000052
:10059000CDFBFFFF10B5002904DB0124E407404236
:1005A0008C412146002B04DB1C460123DB07524211
:1005B000A341994200D1904210BD000010B5202AFD
:1005C00004DB0146203A9140002010BD91402023D9
:1005D0009C1A0346E3401943904010BD10B5202AF1
:1005E00004DB0846203AD040002110BD0B46D34022
:1005F000D0402024A21A91400843194610BD10B5DE
:10060000202A06DBCB170846203A1041C1170B43BE
:1006100006E00B461341D0402024A21A9140084323
:10062000194610BD10B5002B08DA0024401C6141AA
:1006300092185B411A4301D14008400010BDF0B54B
:100640001FB482B005460C0003D0084603F018F929
:1006500002E003F015F920300246009021462846BA
:10066000FFF7ACFF049B059A04460F46184311435D
:10067000084314D0184610431BD0009840210A1A92
:1006800018460599FFF7AAFF05460E46009A0599F8
:100690000498FFF793FF084305D0012004E02046AB
:1006A000394607B0F0BD0020C11705430E432C4367
:1006B000374300990E986305401A7905E40A002231
:1006C0000C43FD0A0A3002D500200146E9E7010586
:1006D000101969410C9C0D9D00196941FFF7A2FF9B
:1006E000DFE70000F8B50546480040080C462843FF
:1006F00004D06000184A400D904201DD2846F8BD44
:1007000015493539884210DC88420BDB290D20035E
:1007100008432903014305D0E00F1049C0074118E1
:100720000020F8BD00200146F8BD161A4020821BAB
:1007300028462146FFF742FF0746009128462146FA
:100740003246FFF74BFF3A46009BFFF76BFF3246FE
:10075000FFF734FFF8BD0000330400000000F03F55
:10076000064C0125064E05E0E36807CC2B430C3C04
:1007700098471034B442F7D3FFF7A6FC14410008A1
:100780003441000872B602480178491C0170704774
:100790001800002004490878401E0006000E08706A
:1007A00000D162B67047000018000020F8B500259F
:1007B0001E4800950169072749064C0F0169C904C5
:1007C0004E0FFF21013100F019F9002801D0082057
:1007D00004430F20A04369464870B74314480526D8
:1007E000C05DC870012136078903304600F006F964
:1007F000014601240F480029694603D08C7000226D
:10080000802103E08D7001210022090300F0FFF830
:100810000121C902304600F0F1F80028684601D0F5
:10082000047000E085700098F8BD000000080050DA
:10083000BD3F00080004005010B500F006F810BDE0
:1008400010B5102000F012F810BD31B500F0E6F838
:10085000044600F0E3F80099001B8842F9D338BD44
:1008600010B5102801D101F0F1FC10BD10B50449FC
:100870004A69024202D04861FFF7F2FF10BD000052
:1008800000040140F8B500230124A2E027469F4060
:100890003A4070D04D68022D01D0122D14D1DD08E0
:1008A000AD002D1800952D6A5E07AC46F50E0F269B
:1008B000AE46AE406546B543AC460E697546AE40A1
:1008C00065462E43009D2E624D68012D05D0022DF8
:1008D00003D0112D01D0122D16D185680326AC4608
:1008E0005D00AE46AE406546B543AC46CE68754643
:1008F000AE4065462E43866046680D79BE43ED06E0
:10090000ED0F9D403543456006685F000325BD40FF
:10091000AE46AE430D79B446AE07B60FBE4065464F
:100920002E430660C6687546AE438D68BD403543AC
:10093000C5604D68ED004BD5294D6E6B26436E6347
:100940009E08284DB6007519AC46AD689E07360F57
:100950000F27B740BD4305273F07B84201D1002705
:1009600015E0214FB84201D1012710E01F4FB842D6
:1009700002D102270BE02BE01D4FB84201D1032723
:1009800005E01C4FB84201D1052700E00627B7401B
:100990002F436546AF60184D2E684F689643FF039E
:1009A00000D516432E606E684F689643BF0300D58E
:1009B00016436E60AE684F689643FF0200D516433B
:1009C000AE60EE684F689643BF0200D51643EE60F6
:1009D0005B1C0A681546DD4000D057E7F8BD0000F3
:1009E00000100240000001400004005000080050C8
:1009F000000C0050001C0050000401400069084039
:100A000000D00120704742694A4042617047002A85
:100A100001D0816170478162704700000148006821
:100A2000704700001000002002480168491C016066
:100A3000704700001000002010B5064801684022F1
:100A400011430160002000F007F800F019F80020C1
:100A500010BD00000020024010B5044607487D216B
:100A6000C9000068FFF744FB00F0DEFE00222146CB
:100A7000501E00F02BF8002010BD000014000020D4
:100A800010B50C48416B012211434163816B020494
:100A90001143816300221146501F00F017F8002215
:100AA0001146901E00F012F800221146501E00F070
:100AB0000DF810BD00100240C106C90E012088408B
:100AC000014908607047000000E100E010B501F046
:100AD0004BFA10BDF8B501265E490746F602002024
:100AE00035015B4B5B4A4031102F6ED011DC012F7A
:100AF0006FD0022F6BD0042F6AD0082F1CD1C96889
:100B000003242403214073D0BD026C10A94274D089
:100B100097E0514C202F03D0402F2FD0B7420BD15C
:100B20000B69096903263604012731403F04B942A5
:100B300003D1990559E02846F8BD01256D04A94265
:100B400003D19907F8D54548F8BDB142FCD11168E9
:100B50008903F9D511680320000501400120000533
:100B6000091A09D0091A05D0814201D13C48F8BDC3
:100B70002046F8BD3B48F8BD3B48F8BDC968012593
:100B8000AD06294006D0A942F7D191688907F4D56E
:100B90003648F8BD11688901FBD5D068D16880025C
:100BA000334D000F2D5C0802810FD068491CC00333
:100BB00006D41068C00601D5204602E0184600E0C1
:100BC0002C486843FFF794FAF8BD3DE001E01CE0D3
:100BD00029E0CC68A407A40F0CD0022C0DD0012C66
:100BE00010D0032CF0D1096989050029A3DBEBE7BC
:100BF00016E002E000F0D6F9E6E711684907E3D510
:100C00001846E1E700F0DEF9DEE7CC680C26344058
:100C100006D0082CF1D0042CF4D00C2CE3D0D3E770
:100C200000F0B0F9D0E7CC680327BF023C40F7D012
:100C3000B442E2D0012292029442E3D0BC42D2D02C
:100C4000C2E7A142DED0BFE7916B4902E8D4BBE71F
:100C50000024F4000010024000093D0088900000CC
:100C600020A1070040420F0080841E00006CDC02BF
:100C7000D53F000800127A00F8B504460068614DBF
:100C8000810601D400057DD55E4E0027403EB06B45
:100C9000C00004D4B06B31040843B06301275A4844
:100CA0000168C90511D40168821511430160FFF77D
:100CB000B5FE009005E0FFF7B1FE0099401A6428E8
:100CC00044D851480068C005F5D5316803200005B7
:100CD000626801401040884205D10323A0681B05CB
:100CE0001840884208D09003800F032804D1306850
:100CF000800301D50120F8BD2869032109040840BB
:100D000029D00A40824202D02278920606D4A268F4
:100D10000A4082421FD0208800051CD528692A6914
:100D200088430121C9040A432A612A698A432A6146
:100D30002861C0050FD5FFF771FE009008E0FFF7AE
:100D40006DFE0099411A3148814201D90320F8BD56
:100D500028698005F3D561688803800F032805D1D1
:100D600032680005824301400A4332602869032249
:100D700061681204114008432861002F06D0B16B4E
:100D8000012000E002E000078143B1632078C00742
:100D900005D0E868E168800880000843E8602078B2
:100DA000800705D5E8680C21884321690843E8607D
:100DB0002078400706D5E8680321890288436169E5
:100DC0000843E8602078000706D5E8680321090396
:100DD0008843A1690843E8602078400606D5E868A2
:100DE000012189068843216A0843E86020780006CB
:100DF00006D5E868032189048843E1690843E8606F
:100E00000020F8BD40100240007000408813000030
:100E1000F8B5054653480E460068C007C00FB042FB
:100E20000AD250480168490849003143016000680E
:100E3000C007C00FB0426FD128784B4C800705D552
:100E4000E068F0218843A9680843E0602878C0077B
:100E500052D06868022817D0032818D021680128CA
:100E600018D08905002957DAE1688908890001430B
:100E7000E160FFF7D3FD69680746022912D0032914
:100E80001CD0012926D033E021688903EAE72168D4
:100E90008901E7E74907E5E7FFF7C0FDC11B3348D4
:100EA000814223D8E0680007800F0228F4D123E0B4
:100EB000FFF7B4FDC11B2D48814217D8E068000739
:100EC000800F0328F4D117E0FFF7A8FDC11B2748C6
:100ED00081420BD8E0680007800F0128F4D10BE0B5
:100EE000FFF79CFDC11B2148814201D90320F8BDB9
:100EF000E0680007800FF3D11A480168C907C90FDD
:100F0000B1420BD9016849084900314301600068CA
:100F1000C007C00FB04201D00120F8BD28784007BB
:100F200006D5E068072109028843E9680843E060C4
:100F30002878000707D5E0680721C9028843296996
:100F4000C9000843E06000F03DF8E168084A09067E
:100F5000090F515CC840074908600020FFF77CFD7D
:100F60000020F8BD0020024000100240881300005D
:100F7000C53F0008140000200148006870470000C9
:100F800014000020044805490068C968044A49055E
:100F9000490F515CC8407047140000200010024007
:100FA000DE3F0008044805490068C968044A89040E
:100FB000490F515CC84070471400002000100240E7
:100FC000DE3F000810B5184AD1680C2008400428FC
:100FD0000BD0082810D00C2810D050680004410F06
:100FE0000120C003491C884010BD1068C00601D50F
:100FF0000E4810BD0E4810BD0E4810BD88020E4BA5
:10100000000F185C0902D368890F491CDB0301D566
:10101000084A05E01268D20601D5044A00E0044AF5
:101020005043FFF765F810BD0010024000093D0075
:101030000024F40000127A00D53F0008F8B50446F9
:101040000078FE4DC0074AD0E8680007800F0228EC
:1010500007D0E8680007800F032809D1E868C003BB
:1010600006D5286880033AD56068002873D036E03A
:10107000012062680004824203D12968014329608B
:1010800011E0052301211B0489049A422A6802D138
:101090000A432A60F1E782432A602A6802400092EC
:1010A000286888432860606800280CD0FFF7B6FCE9
:1010B000064604E0FFF7B2FC801B64287ED828684F
:1010C0008003F7D50BE0FFF7A9FC064604E0FFF725
:1010D000A5FC801B6428F1D828688003F7D4207809
:1010E000800741D5E8681F270007800F3F020128CD
:1010F00007D0E8680007800F032809D1E868C0031B
:1011000006D42868400717D5E068012823D113E0EA
:10111000E068002817D0296809229143014329601B
:10112000FFF77CFC064604E0FFF778FC801B0228F2
:10113000C4D828684007F7D568682169B843090210
:101140000843686010E02868400840002860FFF706
:1011500065FC064605E095E0FFF760FC801B022871
:10116000ACD828684007F7D42078C00672D5E86864
:10117000B34E0007800F0AD0E06900282868B14903
:101180005AD008432860FFF749FC074644E0286826
:10119000800502D5E069002874D0606A6968314032
:1011A000884212D900F030FF0028AFD16868616A28
:1011B000B043084368606868000200E0DCE0218C0E
:1011C000000A0906084368600FE06968B1430143FB
:1011D00069606868218C0002000A0906084368609B
:1011E000606A00F011FF002890D1606A410B012075
:1011F000C003491C8840E96809060A0F9249895CC6
:10120000C840924908600020FFF726FC22E0FFF763
:1012100005FCC01B02288BD828688005F7D56868B4
:10122000616AB043084368606868218C0002000A64
:101230000906084368600DE088432860FFF7EEFB6D
:10124000064604E0FFF7EAFB801B022888D82868DE
:101250008005F7D420787E4E000723D560690028EA
:10126000306910D0012108433061FFF7D7FB0746F2
:1012700004E0FFF7D3FBC01B02287DD8306980074C
:10128000F7D50FE001E1400840003061FFF7C6FBF1
:10129000074604E0FFF7C2FBC01B02286CD8306988
:1012A0008007F7D42078400760D5A86B0027C000DE
:1012B00005D4A86B012109070843A86301276548E5
:1012C0000168C90511D40168821511430160FFF757
:1012D000A5FB009005E0FFF7A1FB0099401A6428E8
:1012E0004AD85C480068C005F5D55648A2688242D5
:1012F00003D131690143316111E001218902002AE2
:1013000007D005231B029A4203D132690A43326196
:10131000EFE7326982433261306988433061A06807
:1013200000280ED0FFF77AFB009006E0FFF776FB6F
:101330000099411A484881421ED830698005F5D588
:101340000DE0FFF76BFB009006E0FFF767FB0099ED
:10135000411A414881420FD830698005F5D4002FE9
:1013600004D0A96B012000078143A963207880067F
:1013700030D53A48421400E080E0A169002916D037
:10138000AB6801210B43AB606B6B0B436B63016A72
:1013900011430162FFF742FB064604E0FFF73EFB04
:1013A000801B02286AD8A8688007F7D512E0A968D0
:1013B00049084900A960016A91430162FFF72EFBC9
:1013C000064604E0FFF72AFB801B022856D8A868CF
:1013D0008007F7D4A06A002855D0E9680907890F6B
:1013E000032952D0012636060228286805D0B043CA
:1013F0002860FFF713FB044642E0B0432860FFF784
:101400000DFB074604E0FFF709FBC01B022835D897
:1014100028688001F7D4216BE06AEA680843616BB1
:10142000FD231B049A4311430843E86028683043B6
:101430002860FFF7F3FA044617E0000000100240AE
:1014400000E0000000010000C53F0008140000207B
:10145000401002400070004088130000000001406E
:10146000FFF7DCFA001B022808D828688001F7D5AE
:1014700009E0FFF7D3FA001B022801D90320F8BDC9
:1014800028688001F5D40020F8BD0120F8BD70B5B2
:10149000040006D025464035687C0026002802D08E
:1014A00005E0012070BD2E74204600F033F80220C4
:1014B000687420680168402291430160A1686068F7
:1014C00022690843E1681143084361690122084326
:1014D000A169520211400843E1690843216A0843A7
:1014E000A16A084321680860A0690421000C084033
:1014F000616A0843216848602168E06A08612068E1
:10150000C16992009143C161666501206874002041
:1015100070BD000000B500680C4985B0884212D14A
:101520000B48416B821411434163E020009002207C
:101530000190002103200390029104910520694647
:101540000007FFF79FF905B000BD00000030014023
:1015500000100240F8B5044600276846078026467A
:101560004036707C012802D0707C22287ED1002970
:101570000CD0002A0AD0002B08D0307C012875D06E
:1015800001203074707C012802D003E00120F8BDF6
:10159000322070746765A263A387E3872163A38603
:1015A000E386A764E7640125A06A6D03A84207D11A
:1015B00020680168A943016020680168294301602F
:1015C00020680168490603D4016840221143016084
:1015D0000121FF20E268C90205308A42616866D1B4
:1015E000002904D081420CD1E08E012809D1206B62
:1015F00021680088C860206B801C2063E08E401E3C
:10160000E086E08E002843D1A06AA84246D1206837
:10161000016801221203114301603FE02068C068A5
:10162000A16B0880A06B801CA063B0E000220221A7
:101630002046069B01F026F900287DD1206B216809
:101640000088C860206B801C2063E08E401EE0860E
:10165000E08E002808D1A06AA84205D12068016860
:101660000122120311430160002200E0CCE00121BD
:101670002046069B01F006F900287FD12068C0684B
:10168000A16B0880A06B801CA063E08F401EE087E8
:10169000E08E0028CAD1606800287BD10022012199
:1016A0002046069B01F0EEF8002867D1B6E7002936
:1016B00004D081420BD1E08E012808D1206B411C5F
:1016C000216321680078C860E08E401EE086E08ECD
:1016D000002845D1A06AA84205D1206801680122EE
:1016E000120311430160002201212046069B01F0F4
:1016F000C9F8002842D12068C068A16B087046E094
:10170000002202212046069B01F0BCF8002835D1BA
:10171000206B411C216321680078C860E08E401E68
:10172000E086E08E00280AD1A06AA84207D120688E
:1017300002680121090300E020E00A430260002260
:1017400001212046069B01F09DF8002816D1206853
:10175000C268A06B411CA1630270E08F401EE0874D
:10176000E08E0028CCD16068002813D1002201212E
:101770002046069B01F086F8002802D00320F8BD21
:1017800008E02068C168A06B421CA2630170E08F72
:10179000401EE087A06AA8420FD100220121204606
:1017A000069B01F06FF8002802D0606D02210EE068
:1017B0002068C06869460880088801228021204688
:1017C000069B01F05FF8002804D0606D20210843DB
:1017D0006065D3E701207074A06AA84211D1206827
:1017E0008168C943C9060CD4616D02221143616549
:1017F0000168A943016020680168294301603774CA
:10180000C4E637740020BAE70220B8E7042204498E
:101810000428086902D09043086170471043FBE731
:1018200000E000E070470000094910B5401E884202
:1018300001D9012010BD074C60610321081F00F091
:1018400093FB0020A06107202061002010BD000054
:10185000FFFFFF0000E000E010B5FFF7E3FF10BD61
:1018600070B502462032137D012B1BD00123137566
:1018700002245475046865687026B5436560046881
:1018800065680E68354365600468A5688026B543C1
:10189000A5600068846849680C4384605375002023
:1018A000107570BD022070BD70B5040005D02546CE
:1018B0002035687D002802D006E0012070BD0020A0
:1018C0002875204600F00AF802206875211D20685E
:1018D00001F07EFD01206875002070BD10B5006824
:1018E0000121890788420CD10648816B01221143EE
:1018F0008163002211460F20FFF7E8F80F20FFF761
:10190000DBF810BD001002400268D36801210B43D0
:10191000D360006802680A43026000207047F8B58F
:10192000054604462035287D012817D001272F754C
:1019300002206875226890687726FF23B0431B0257
:10194000984390600868502837D00EDC202857D084
:1019500006DC00284ED0102840D14EE00220F8BD11
:10196000302850D0402839D13CE060282DD0702854
:1019700017D001221203801A0ED090422ED1CB68CC
:101980004A688968206801F04BFD2068816801225F
:1019900092031143816021E020688168C908C90071
:1019A000F8E7CB684A688968206801F039FD21684A
:1019B0008868B0433043886010E0CA68496820688E
:1019C00001F041FD5021206806E0CA68496820689E
:1019D00001F04AFD6021206801F02DFD6F750020A7
:1019E0002875F8BDCA684968206801F02CFD4021BF
:1019F0002068F1E700212068EEE710212068EBE77E
:101A000020212068E8E730212068E5E7704770B5BD
:101A10000446006801690025C9438907002915DBD0
:101A2000C168C943890711D4E91E016101202075ED
:101A3000206880698007204602D0FFF7E7FF04E0B6
:101A400000F078F8204600F076F8257520680169E6
:101A5000C943490717D4C168C943490713D40421AE
:101A6000C943016102202075206880698005800FCC
:101A7000204602D0FFF7CAFF04E000F05BF82046E2
:101A800000F059F8257520680169C943090716D483
:101A9000C168C943090712D40821C9430161042060
:101AA00020752068C0698007204602D0FFF7AEFF8E
:101AB00004E000F03FF8204600F03DF8257520686E
:101AC0000169C943C90617D4C168C943C90613D4FB
:101AD0001021C9430161082020752068C069800574
:101AE000800F204602D0FFF791FF04E000F022F8BB
:101AF000204600F020F8257520680169C943C90710
:101B000008D1C168C943C90704D1891E01612046B3
:101B100000F012F820680169C943490609D4C16878
:101B2000C943490605D44021C9430161204600F05C
:101B300011F870BD70477047044900680968884211
:101B400003D103480168491C0160704788010020E7
:101B50000C000020704770B5040005D025466035A4
:101B6000687A002802D006E0012070BD00202872AB
:101B7000204600F027F82420687220680168490890
:101B800049000160606A002802D0204601F07FFC15
:101B9000204601F011FD0128E7D0206841680922A4
:101BA000D20291434160206881682A22914381607A
:101BB00020680168012211430160204601F0CCFC3D
:101BC00070BD000000B500680D4985B0884215D190
:101BD0000C48416B012292031143416303204002F0
:101BE0000090022001900020029003200390042026
:101BF0000490052069460007FEF744FE05B000BDCD
:101C00000038014000100240FFB506460446603629
:101C1000707A83B00D46202858D1002D0CD005983D
:101C2000002809D00120A1680003814207D1206962
:101C3000002804D1E80702D0012007B0F0BD307AB7
:101C4000012843D0012030720020E066212070720C
:101C5000FEF7E4FE01902746403705983882059844
:101C6000788218E0788A401E7882069800900022D8
:101C700080212046019B01F0ADFD002818D10120F4
:101C8000A1680003814202D12069002812D0216896
:101C9000287888626D1C788A0028E3D10698009025
:101CA000002240212046019B01F094FD002808D02D
:101CB0000320C2E728882168C005C00D8862AD1CDA
:101CC000E9E72020707200203072B6E70220B4E706
:101CD000FEE70000F0B5524887B0C16A0422114304
:101CE000C162C16A11400591C26A80210A43C26281
:101CF000C26A0A400592C16A01252943C162C16ACC
:101D000029400591C16A02263143C162C16A31404E
:101D10000591C16A08221143C162C06AFF211040C7
:101D200005900520012214310007FEF770FE2121E5
:101D30000122C9013B48FEF76AFE3B480327002405
:101D400000906946019702943848FEF79BFD009782
:101D50006946374801970294FEF794FD05200095E7
:101D600001956946000702950394FEF78BFDFF205D
:101D700013300090052002946946019503940007F2
:101D8000FEF780FD2B4800900520694601970294DC
:101D90000007FEF777FD28486A4631C269462348A6
:101DA000FEF770FD254800906946019702941D4892
:101DB000FEF768FD2120C00100900294694601955C
:101DC00003941848FEF75EFD0920C0026A4631C23E
:101DD000052069460007FEF755FD0420009069467E
:101DE000019702941648FEF74DFD08206A4651C23D
:101DF00069460C48FEF746FD1020009011480190FE
:101E0000694602960748FEF73DFD0022114607206D
:101E1000FEF75CFE0720FEF74FFE07B0F0BD0000A6
:101E200000100240000400508F2200000008005003
:101E3000001C00500CB00000701D000067EF000097
:101E4000000C00500000111010B510480E49016040
:101E5000FF210531416000218160C16001220161E3
:101E6000520282614161016218224162C261816253
:101E70000721C162FFF70BFB002803D0452104A016
:101E800001F0D9FC10BD00000030014030010020FD
:101E90002E2E2F5372632F7370692E630000000083
:101EA00010B50121164886B08907016000241F2162
:101EB0008460416013490461C160FFF7F5FC0028AC
:101EC00003D0412110A001F0B6FC012000030090D6
:101ED00069460B48FFF723FD002803D047210AA0DD
:101EE00001F0A9FC049404A905480594FFF7B8FC87
:101EF000002803D04E2104A001F09DFC06B010BDC7
:101F000088010020E70300002E2E2F5372632F74E8
:101F1000696D2E630000000010B50D480B4901608B
:101F2000E1214902416000218160C160016181615C
:101F3000C1610C22016242614162FFF70CFE002880
:101F400003D0582103A001F076FC10BD00380140F9
:101F5000C00100202E2E2F5372632F75736172748F
:101F60002E630000704700008307FF22DB0E9A40BB
:101F70008907090E994000280BDA0007000F08387E
:101F8000830808489B001818C36993430B43C36137
:101F90007047830804489B001B1818689043084347
:101FA0001860704700ED00E000E400E070B5074CF9
:101FB0001546A1800A4601461E460548FEF7DEF892
:101FC0006570A6700120207070BD00000000002028
:101FD000D400002001490320087070470000002051
:101FE00001490220087070470000002001490420C8
:101FF00008707047000000200149052008707047F4
:10200000000000207047000070B517490023CA681F
:102010001206120F18D18A6B154CD500134A02D53F
:102020001268224009E08E6B01252D072E438E6336
:1020300012688E6B2240AE438E63A24204D103210C
:102040008903884200D101230A48016849084900F0
:10205000194301600068C007C00F984201D00120F9
:1020600070BD002070BD00000010024000700040F4
:1020700000180000002002400120704710B5002821
:102080000DD00A4A0021CB00D458844209D89B18AD
:102090009B68834205D9C8008018007B10BD1F20B3
:1020A00010BD491CC9B21529EDD3FEE75440000804
:1020B00010B500F0A5FC032804D0042803D005289F
:1020C00003D0002010BD022010BD012010BD08204B
:1020D0007047000010B50E4C20610E4800F01EFD48
:1020E000002000F0A9FF012000F023FF0021084696
:1020F00000F0E7FD0421002000F0DAFF064800238D
:102100001A46014600F02FFE0020A07010BD00000E
:10211000200000204D220008FFFF0000F8B5354CDC
:10212000A078002865D0FEF72DFB0020A070FEF7F8
:1021300031FB00F05BFC05462F4800F04DFCE80742
:1021400006D02069002803D00068002800D080470E
:10215000A80718D5FF226946284800F09BFC2748AD
:10216000143800F053FC206900280CD08668002E3B
:1021700009D022480D2314380C22C35682566846D3
:1021800001781E48B047680606D52069002803D0AC
:102190000069002800D0804728060AD52069002859
:1021A00007D08169002904D0E843C005C017401C4E
:1021B0008847A80514D500F023FC042804D000F0BB
:1021C0001FFC052805D00BE02069002808D04068D6
:1021D00003E02069002803D0C068002800D08047B1
:1021E000A80606D52069002803D0C068002800D0C2
:1021F0008047F8BD20000020FFFF000044020020BF
:10220000FFB581B01F460D46012400F0B5F8284601
:1022100000F096FE002000F045F80120FEF70CFBD0
:10222000094D2E6806E000F04BFC0399884201DD61
:10223000002403E02868801BB842F4D300F03EFA83
:10224000204605B0F0BD00000C000020014901202F
:10225000887070472000002070B50025012000F034
:102260008BF8002000F098FE00240120FEF7E4FA2D
:1022700000F026FCC007C00FA040641C0543E4B278
:10228000202CF2D300F01AFA284670BD10B500F0E9
:10229000BDFC10BD10B500F0C1FC10BD10B500F0C4
:1022A0000FFC10BD084810B500231A46014600F087
:1022B0005AFD06484178002901D0054801E0C06870
:1022C000800100F069FE10BDFFFF0000200000202B
:1022D000FFFFFF00084810B500231A46014600F032
:1022E00042FD06484178002901D0054801E0C06858
:1022F000800100F063FE10BDFFFF00002000002001
:10230000FFFFFF0070B505460C480C4600231A4637
:10231000014600F028FD00F0B7FB014608480129FE
:1023200009D00472064800F095FD00222146284697
:1023300000F0BFFC70BDC473F4E7000001020000B0
:102340004403002010B500F0FBFD10BD10B5084B94
:10235000084A012808D0D079012804D119701172D7
:10236000044800F077FD10BD1970D173F8E7000044
:10237000200000204403002010B50A4C012805D09D
:10238000002000F0C1FD0020607010BD012000F0B1
:10239000BBFD617820788142F7D0607000F004F8CE
:1023A00010BD00002300002070B504460B480470E7
:1023B00044700120FFF7E0FF1D208001451C002C28
:1023C00004D0342100F030FF442103E0142100F058
:1023D0002BFF2421284600F027FF70BD230000209A
:1023E000FFB587B016460146584B1998119F149AAD
:1023F00058701398002822D0554C54482546027036
:10240000204628302035019000291AD0012972D1A8
:10241000002000F023FE1298C0B200F0B8FC0123A7
:102420002B72F0B228764B4A0899515C69760A996A
:10243000A9760899002960D0012960D061E0FF22C7
:10244000DAE7002000F00AFE002028720B20E66286
:1024500028750898FFF712FE687500202070F800B4
:10246000608004202071182060710020A0711399F1
:1024700001204140354FE1713978217215990029C9
:1024800002D0F221617200E06072A072002000F0C0
:10249000D3FD287A002800D00120FFF76DFF0198B6
:1024A00000F07CFC2A4800F0D5FC2BA103C9049065
:1024B000059104A800F0D9FD294800F01BFE304624
:1024C000FEF73CF802460B4600202649FDF794FF34
:1024D0000322FEF709F804460D461298FEF72EF87F
:1024E00022462B46FDF720FF00221F4BFDF71CFF65
:1024F000FEF732F8F8600BB0F0BD0B2E09D00C2EB1
:1025000007D00021E9762370052804D0062802D0E0
:1025100006E01946F6E70C2F02D20C20A08100E05D
:10252000A7811398094DA0732878E073159820743B
:10253000189860740120FFF71FFF019800F02EFC2F
:10254000034800F087FC0948E860D4E72000002039
:102550004403002004410008C194C10000000000B1
:10256000FF0100000000F03F00408F40FFFF00002F
:1025700010B500F03DFD10BDFFB5454D83B00246DE
:10258000294628312C460E9E0C9820340291002AB0
:1025900002D0012A73D138E000272772E8620B20AD
:1025A00020751846FFF76AFD6075059828632F703F
:1025B000F00068800420287118206871AF710F99AD
:1025C00001204140E9711099002902D0F22169727D
:1025D00000E06872A872002000F02EFD207A00282A
:1025E00000D00120FFF7C8FE029800F0D7FB284872
:1025F00000F030FC27A103C900900191684600F06B
:1026000034FD264800F076FD39E001212172C2B286
:10261000234F2276FF5C67760D9FA776002B02D0B2
:10262000012B02D003E00B2809D00C2807D0002092
:10263000E0762970052A04D0062A02D006E0E17669
:10264000F7E70C2E02D20C20A88100E0AE810F9893
:10265000A87314480078E873109828741398687465
:10266000002000F0E9FC207A002800D00120FFF7CC
:1026700083FE029800F092FB054800F0EBFB049803
:1026800000F084FC07491498886007B0F0BD000092
:1026900044030020C194C10000000000FF010000BD
:1026A000044100082000002010B50C4600F048FC52
:1026B000204600F06BFC00F0F3FC10BD08B50020D4
:1026C000694600900878042108436946087000981C
:1026D00000F0A6FC0220FEF7AFF808BD10B5002000
:1026E00000F0AAFC10BD10B500F0F6FA10BD000015
:1026F000F3B50246002057498BB0002A56D0012A74
:102700007DD10F462037787E30225043524A3C7E9E
:1027100080180C22121BD2008018C21FF93A1046F2
:10272000466C0846156C8089FDF708FF00224B4B6C
:10273000FDF748FD2A463346FDF7F6FD0791069062
:10274000B87E8007800F001DFDF7F8FE059104900C
:10275000F87E002800D00220201A8000FDF7DAFE63
:1027600007460C980391C000A100411A3948027C29
:10277000807B12018918012852D00020081A1C30D1
:10278000FDF7C8FE3A46039BFDF736FE01F05AFA04
:10279000059B049AFDF7C8FD002207460C46134628
:1027A000FDF7F8FE3ED2384621463DE00C46C86AA9
:1027B000FDF7C4FE06460F460C98FDF7BFFE0D461A
:1027C000069061796088C9084018FDF7B7FEE27984
:1027D000002A1ED00022224BFDF7F4FC2B46069A5D
:1027E000FDF7F0FC627A022A16D000221346FDF7AC
:1027F000E9FC0322FDF778FE32463B4600E027E085
:10280000FDF7FAFD0022174BFDF78EFD01F0D0FB1E
:102810001CE000221346DFE7002201239B07E6E7C6
:102820001420ABE70020014600220F4BFDF7CAFC45
:102830002A463346FDF778FD079B069AFDF7C2FC52
:102840000A4A0B4BFDF7BEFC01F060FAFDF784FE6F
:102850000DB0F0BD440300203800002000001140FE
:102860000000F03F00408F40000020402B8716D929
:10287000CEF7EF3F10B500F0D7FC10BD10B500F05B
:10288000D9FC10BDF8B51D4616460F460446FEF7A6
:10289000C5F8314626464036009000291ED043E058
:1028A000681C1BD0002D05D0FEF7B8F80099401A1F
:1028B000A84213D920684168E02291434160206812
:1028C000026840218A43026023E021680A6882434B
:1028D0000A6021680A6802430A601FE02068816874
:1028E00038468843DCD124E0681C1DD0002D06D07A
:1028F000FEF794F801460098081AA84214D92068F7
:102900004268E0218A434260206801684022914386
:1029100001600120A16A40038142D6D00120707479
:10292000002030740320F8BD206881683846884351
:10293000DAD00020F8BD704701B501226946892030
:1029400000F04AFC08BD0000174908B5884204D9C8
:10295000E12168460170E9211EE01449884204D94A
:10296000D72168460170D82116E01149884204D960
:10297000C12168460170C5210EE00E49884204D984
:10298000752168460170812106E00B49884204D90F
:102990006B21684601706F214170022269469820C0
:1029A00000F01AFC08BD000000E9A43580F8A93247
:1029B0008044E52D000B6B1B40FC541910B50548F5
:1029C0004078002801D0062801D100F0B9FB00F0C2
:1029D000ABFB10BDC800002008B5020A69460A70AA
:1029E00048700222104600F0F7FB08BD08B502222D
:1029F0006946122000F0DEF86846008840BA08BD3B
:102A00000148407870470000C800002038B50446EF
:102A100003226946142000F0CDF81A498878207006
:102A2000002808D0012816D014212046FDF7BFFB4E
:102A30000F20207038BD68460078207168464078C5
:102A400040424010A071684680784042401060715A
:102A50000020A06038BD68460078404240102073D6
:102A600068464078802801D2800802E0FF380138AB
:102A7000801060736846807840424010A0734868B8
:102A8000206138BDC80000200148807870470000F0
:102A9000C8000020F8B50C460646002069460870BC
:102AA0001546204600F018F82278AA4201D90120E4
:102AB000F8BD68463146007800F04CF80020F8BDBB
:102AC00008B501226946152000F074F868460078C0
:102AD0004042401040B208BD38B50D4604460222BF
:102AE0006946132000F066F80A488078012809D169
:102AF000094800F08BF8C00904D00748801E00F098
:102B000085F801E0684600782070684640782870B3
:102B100038BD0000C80000200407000008B500F020
:102B2000B1F800F00DFB002000F086FAFF214131E2
:102B3000072000F008F97F20694608700098FFF729
:102B4000FBFE012000F0F8F801490120487008BDA3
:102B5000C8000020F8B515460E460446FFF72EFFC4
:102B6000FF2701370520002239460007FDF74FFFF8
:102B70001E210F4800F08EFB21460D4800F08AFB15
:102B800000210B4800F086FB002406E000210848E5
:102B900000F080FB3055641CA4B2AC42F6D3052093
:102BA000012239460007FDF732FF00F0BDFAF8BDFB
:102BB00030010020F8B515460E460446FFF7FEFE2C
:102BC000FF2701370520002239460007FDF71FFFC8
:102BD00021460D4800F05EFB00210B4800F05AFB37
:102BE000002406E00021084800F054FB3055641C26
:102BF000A4B2AC42F6D30520012239460007FDF706
:102C000006FF00F091FAF8BD3001002008B501225E
:102C1000694600F003F86846007808BDF8B5154627
:102C20000E460446FFF7CAFEFF27013705200022A3
:102C300039460007FDF7EBFE1D21114800F02AFB85
:102C4000210A0F4800F026FBE1B20D4800F022FBFC
:102C500000210B4800F01EFB002406E0002108487C
:102C600000F018FB3055641CA4B2AC42F6D305202A
:102C7000012239460007FDF7CAFE00F055FAF8BDFB
:102C80003001002010B50A20FDF7DFFD05242407E0
:102C9000002201212046FDF7BAFE1420FDF7D5FDE4
:102CA000012211462046FDF7B2FE0A20FDF7CDFDB8
:102CB00010BD10B5144600F035F9204600F0DEF9DD
:102CC00010BD08B56A4610705170022269468F2007
:102CD00000F082FA08BD000010B500221146C520A0
:102CE00000F07AFA01490720487010BDC8000020A2
:102CF00008B5020A69460A704870044880780028BE
:102D000003D10222024800F095FA08BDC800002055
:102D1000BE06000008B5020A69460A7048700448F9
:102D20008078002803D10222024800F083FA08BD0F
:102D3000C8000020BC06000001B5012269469D20A4
:102D400000F04AFA08BD08B54207520F6846027003
:102D50000A0C42700A0A8270C170042269469720E8
:102D600000F03AFA08BD7CB5050A6C462570607023
:102D7000080AA070E170100A20716271180AA0712F
:102D80000822E3716946104600F026FA7CBD01B5C1
:102D900001226946A02000F01FFA08BD7CB5044658
:102DA000002000900190224920788978884201D043
:102DB00000F0AAF82078002810D001280DD1217C3D
:102DC00068460170617C4170A17C8170E17CC170BA
:102DD000042269468B2000F0FFF97CBD082560685D
:102DE000FDF7ACFB02460B4600201249FDF704FB41
:102DF0000522FDF779FBFDF7AFFB020C69460A706F
:102E0000020A4A708870207BC870607B0871A068D5
:102E1000FDF794FB0022084BFDF7EEFAFDF79CFB53
:102E2000020C69464A71020A8A71C8712A46D1E7C2
:102E3000C800002080847E418084EE3F38B56C4617
:102E400020706170A270E37004226946952000F042
:102E5000C3F938BD3EB504460020009001900290B1
:102E6000244920788978884201D000F04DF82078F4
:102E7000002814D0012811D1A18906220B0A684626
:102E800003704170A17B8170E17BC170217C017175
:102E9000617C417169468C2000F09EF93EBD607AEC
:102EA000F12802D0F22808D00EE01348FFF732FFD5
:102EB0001248FFF71DFF022006E01148FFF72AFF26
:102EC0001048FFF715FF0620618809220B0A6946A2
:102ED0000B70A3784B7023798B706379CB70A379D7
:102EE0000B71E3794B71237A8B71C871A07A0872E8
:102EF000D0E70000C8000020FFFF000005800000B0
:102F00000F1D00002110000001B56846044900783B
:102F10008870012269468A2000F05EF908BD000031
:102F2000C80000200A4610B50146002000F028F92C
:102F300010BD01B501226946962000F04DF908BD8B
:102F400038B5104C05462078002804D12846FFF7F4
:102F5000FBFC012020702846FDF7F0FA00220A4B06
:102F6000FDF74AFAFDF7F8FA020E69460A70020CFC
:102F70004A70020A8A70C8700422862000F02CF978
:102F800038BD0000C80000208084EE3F10B502214B
:102F900000F08EF810BD000008B5074A05215170F9
:102FA000020C69460A70020A4A7088700322822065
:102FB00000F012F908BD0000C800002038B5044632
:102FC0000949052048709621084800F02DF9210C88
:102FD00068460170210A417084700322694682208C
:102FE00000F0FAF838BD0000C8000020AC0800006E
:102FF0001CB5030C6A461370030A53709070080CDA
:10300000D070080A1071517106226946942000F0B0
:10301000E3F80249062048701CBD0000C8000020EB
:1030200001B501226946842000F0D6F8014900204C
:10303000487008BDC800002001B501226946802003
:1030400000F0CAF8684601780348002902D002213E
:10305000417008BD0121FBE7C800002001B5012235
:1030600069469F2000F0B8F808BD014610B51B2046
:103070000822800100F0DEF8002010BD08B5074AE4
:1030800004215170020C69460A70020A4A70887065
:103090000322832000F0A0F808BD0000C800002033
:1030A00010B500221146D12000F096F810BD0000A6
:1030B00038B50D4604460123002207210420FFF7FE
:1030C000BDFE162C01DD162404E00220C04384421C
:1030D00000DA04463821064800F0A6F86846047075
:1030E0004570022269468E2000F076F838BD000057
:1030F000E708000070B504460A488078002810D11F
:10310000D725ED002846FFF781FD4008E105400086
:10311000C90F0143284600F087F8E1B2681C00F0AF
:1031200083F870BDC800002010B5044C082120466B
:10313000FDF764FC0128F9D010BD00000004005028
:1031400070B5FDF71FFBFF24052501342D07002274
:1031500021462846FDF75BFCC021084800F09AF89C
:103160000021064800F096F8012221462846FDF786
:103170004EFCFFF7D9FFFDF70DFB70BD30010020BD
:10318000F8B515460E460446FFF718FCFF27013731
:103190000520002239460007FDF739FC0E210D48B5
:1031A00000F078F821460B4800F074F8002405E0A0
:1031B000315D084800F06EF8641CA4B2AC42F7D34D
:1031C0000520012239460007FDF721FCFFF7ACFF7F
:1031D000F8BD000030010020F8B516460F46054640
:1031E000FFF7ECFBFF210520002201310007FDF76E
:1031F0000EFC29460B4800F04DF8002405E0395D2F
:10320000084800F047F8641CA4B2B442F7D3012286
:10321000052011020007FDF7FAFB842D01D0FFF70E
:1032200083FFF8BD3001002013B5012201A900F091
:1032300001F81CBDF8B515460E460446FFF7BEFB67
:10324000FF2701370520002239460007FDF7DFFB85
:103250000D210F4800F01EF8210A0D4800F01AF861
:10326000E1B20B4800F016F8002405E0315D084893
:1032700000F010F8641CA4B2AC42F7D30520012280
:1032800039460007FDF7C3FBFFF74EFFF8BD00000E
:103290003001002013B582B0044600216846017158
:1032A00020680168402211430160FDF76BFA07486E
:1032B0000090012301AA03A92046FEF74BF9FDF770
:1032C00069FA6846007904B010BD0000FFFF0000F5
:1032D00010B5FDF7A9FBFEF7BFFA10BD30B52248C7
:1032E0009DB001680322D2029143C2148918016083
:1032F000022000900A90400401250C9003950001E3
:10330000102100240D900B9404916846FDF796FE61
:10331000002800D0FEE70F200E9003200F9010949D
:103320001194012112940EA8FDF772FD002800D01F
:10333000FEE713A813951694FDF79EFC002800D015
:10334000FEE7FDF719FE7D21C900FCF7D1FEFEF76F
:103350006BFA0420FEF75AFA00221146501EFDF7C0
:10336000B5FB1DB030BD0000007000401048016882
:10337000821511430160C1680E4A1140C1600168A5
:103380000D4A114001608168490849008160016867
:103390000122920491430160C168FD22120491430D
:1033A000C160002101610549C003886070470000C9
:1033B000001002400C40FF88F6FFF6FE00ED00E032
:1033C00010B50248FEF723FB10BD00008801002065
:1033D00070B5026801239B070F4C104D984203D033
:1033E000A04201D0A84203D17026B2434E683243B6
:1033F000984203D0A04201D0A84204D103231B026B
:103400009A43CB681A4302608A68C2620968816283
:103410000121416170BD000000080140001401401D
:1034200030B58468FF252D021B021343AC430B43C8
:103430002343836030BD826870239A430A43072187
:103440000A438260704730B5036A046A6408640006
:1034500004628469F025AC43120122430A24A34389
:103460000B438261036230BD30B5036A1024A3436D
:1034700003628469036A0F252D031203AC432243C0
:10348000A024A343090119438261016230BD10B534
:10349000818CC90707D001684A6801235B049A43FD
:1034A000836A1A434A60818C890707D501684A6894
:1034B00001231B049A43C36A1A434A60818C49075B
:1034C00007D501684A6801239B049A43036B1A439A
:1034D0004A60818C090707D501684A680123DB032C
:1034E0009A43436B1A434A60818CC90607D5026828
:1034F000916801231B039943836B19439160818C6D
:10350000890607D501688A6801235B039A43C36B68
:103510001A438A60818C490612D503685A680121D2
:103520000905046C8A4322435A60026C8A4207D11F
:103530000268516803235B059943436C194351604A
:10354000818C090607D501684A680123DB04806C79
:103550009A4302434A6010BDF8B500260446C66689
:10356000FDF75CFA054620680068124F000709D590
:1035700001212B46002249052046009700F02AF938
:1035800000280DD12068006840070BD501212B468B
:10359000002289052046009700F01CF9002801D080
:1035A0000320F8BD202060346072A07226720020D3
:1035B000F8BD0000FFFFFF01FEB50446016880680A
:1035C0002269E36910436269102700261A431043F9
:1035D0000A683546754B1A4002430A602068416804
:1035E000032212039143E26811434160704A21684B
:1035F000A069914201D0226A10438A680B231B0202
:103600009A4302438A606B4A21686B4891420CD10D
:10361000C0688007800F06D001283DD0022839D02D
:10362000032820D11EE001271DE0644A91420AD1FF
:10363000C0680C2108402BD004282DD0082829D0A0
:103640000C2810D10EE05A4A91420CD1C1680320D7
:10365000800201401CD01015091A1DD0091A19D07A
:10366000814200D108270220FDF734FA0190504B27
:10367000514922684039D81300929A4235D1002F1F
:103680000CD0022F0DD0042F12D0082F1CD113E024
:103690000027E8E70227E6E70427E4E7FDF772FCE6
:1036A00008E00868C00601D5454805E0454803E044
:1036B000FDF788FC002873D06268510051188142E0
:1036C00002D81103814201D2012569E0010E0602F0
:1036D0005008002330185941FCF720FD032109024E
:1036E000394A411A914259D9EEE7E26982422DD115
:1036F0003B0000F0DCF80906080B24192424241FE1
:103700002400019812E0FDF74DFC0FE008686168A5
:10371000C00602D548082D4A01E02D4A4808801805
:10372000FCF7E6FC86B20BE0FDF74CFC616840005C
:103730004A08F4E76168012248081204EFE701250E
:10374000310909013007400F084327E03B0000F032
:10375000AEF809070A0D061D060606290600B3E79E
:10376000FDF710FC14E0FDF71DFC11E0086861682E
:10377000C00602D54A08124801E012484A0810184B
:10378000FCF7B6FC81B20098C16009E0FDF71AFCB5
:1037900061684A088018FCF7ABFC80B22168C860F9
:1037A0002846FEBD61684A08E9E70000F369FFEFBB
:1037B00000480040003801404010024000440040F2
:1037C00000093D000024F400FFFC0F0000127A0005
:1037D0000048E801FFB581B017460E4604460A9D31
:1037E0001DE0681C1BD0002D05D0FDF717F90499CA
:1037F000401AA84213D920680168FF22A1329143E0
:103800000160206881684908490081602020603497
:103810006072A07200202072032005B0F0BD206805
:10382000C1693046884304D00020B842D9D0002076
:10383000F3E70120F9E7FEE70FB410B503A9044B45
:10384000044A029800F050F810BC08BC04B01847B5
:10385000D53D0008D00000200FB410B504A9074BD7
:1038600002AA039800F040F8044602A9002000F0E4
:10387000E3F9204610BC08BC04B01847393C0008E6
:103880002021020C01D010211046020A01D010465E
:103890000839020901D01046091F820801D01046DC
:1038A000891E420801D0881E7047081A704730B43C
:1038B0007446641E2578641CAB4200D21D46635DCD
:1038C0005B00E31830BC184702E008C8121F08C1AB
:1038D000002AFAD170477047002001E001C1121F91
:1038E000002AFBD170470000FFB58FB005460026C7
:1038F00006E025280AD0129A119990476D1C761C73
:1039000028780028F5D1304613B0F0BD0024029489
:103910000121B54A009400E004436D1C2B78084651
:10392000203B98401042F7D128782A280ED0022256
:10393000287801463039092916D802990A235943B3
:103940003039401814436D1C0290F1E7109802C8FA
:1039500002911090002904DA0120400304434842F8
:103960000290022004436D1C28782E2817D10420D1
:10397000044368786D1C2A280CD110986D1C02C86D
:10398000009110900BE000990A2251433039401801
:103990006D1C00902878014630390929F3D9287820
:1039A0006C2810D006DC4C281AD068280ED06A2863
:1039B00017D104E0742813D07A2812D110E0012026
:1039C000400504430CE00121090501E0032109053C
:1039D0000C436978814203D10120000524186D1C35
:1039E0006D1C2878692874D006DC00288BD06328E9
:1039F00027D0642806D16CE06E2808D073282CD01C
:103A0000752878D0129A11999047761C5FE0600271
:103A1000400F022809D003280DD00428109801680F
:103A20000DD00E60001D109051E01098F217016843
:103A30000E604A60F6E7109801680E80F2E70E709B
:103A4000F0E710986A4601781173001D109000206D
:103A5000507303A80190012005E0109802C801915D
:103A600010900020C04361070CD5002700E07F1CA8
:103A700000998F420FDA8742F9DB0199C95D00296D
:103A8000F5D108E0002700E07F1C8742FCDB0199AC
:103A9000C95D0029F8D102982146C01B0290129BF3
:103AA000119A00F0B3F88019C61907E0019801993E
:103AB0000078491C0191129A119990477F1EF5D206
:103AC0002146129B119A029800F090F886196D1CFD
:103AD00016E70A200190109901C910916102490F5F
:103AE000032900D100B2042900D140B2002803DA32
:103AF00040422D2103E00DE0210504D52B216A462B
:103B00001173012103E0E10711D02021F7E70CAF89
:103B10000C9114E00A200190109901C910916102E2
:103B2000490F032900D180B2042900D1C0B200217D
:103B3000EDE70199FCF7DCFA30317F1E397000287F
:103B4000F7D104A8C01B20300190600704D50120E4
:103B500000048443009801E001200090019988420C
:103B600001DD401A00E00020411800900C9809186F
:103B70000298401A0290E00306D42146129B119A43
:103B8000029800F043F8861900200D9008E003A980
:103B9000085C129A119990470D98401C761C0D9064
:103BA0000C998842F3DBE0030CD52146129B119A55
:103BB000029800F02BF8861904E0129A302011992F
:103BC0009047761C0099481E00900029F5DC05E01E
:103BD0003878129A7F1C11999047761C0199481EDB
:103BE00001900029F4DC6BE709280100F8B50446D0
:103BF00000251E461746880404D405E039462020D7
:103C0000B0476D1C641EF9D52846F8BDFFB50446C3
:103C1000002581B01E46C80301D5302700E02027CB
:103C2000880404D505E038460399B0476D1C641E2E
:103C3000F9D5284605B0F0BD0A68531C0B6010701A
:103C400070470000F8B54A002B4B520DD6182B4A8E
:103C50000C460546142E2BDA002E12DA284BFCF700
:103C6000B1FA00221346FCF795FC40D2002C03DA8F
:103C70000124E40700253AE02046284337D0214CB0
:103C800014E0214F0B46F7403B402B4331D01C4BF7
:103C9000FCF798FA00221346FCF77CFC27D2002C94
:103CA00003DD01200005F0400419BC4300251EE09F
:103CB000332E1EDC33460027143BFF43DF403842DF
:103CC00017D00F4BFCF728FB00221346FCF762FCD1
:103CD0000DD2002C0ADD142E0CD03420811B0120C3
:103CE00088404019A84200D2641C0546BD432146C5
:103CF0002846F8BD641CF9E701FCFFFF9C750088AD
:103D00003CE4377E0000F03FFFFF0F00F8B54A00AB
:103D10002B4B520DD6182B4A0C460546142E2BDA87
:103D2000002E12DA284BFCF74DFA00221346FCF75E
:103D300031FC40D2002C02DB002425463BE0600031
:103D40004008284337D0214C14E0214F0B46F74060
:103D50003B402B4331D01C4BFCF734FA0022134676
:103D6000FCF718FC27D2002C03DA01200005F040F4
:103D70000419BC4300251EE0332E1EDC3346002709
:103D8000143BFF43DF40384217D00F4BFCF7C4FA17
:103D900000221346FCF7FEFB0DD2002C0ADA142E8B
:103DA0000CD03420811B012088404019A84200D249
:103DB000641C0546BD4321462846F8BD641CF9E74E
:103DC00001FCFFFF9C7500883CE4377E0000F0BFDB
:103DD000FFFF0F0013B5044B012269460348FDF7AE
:103DE00013FF00981CBD0000FFFF0000C001002071
:103DF0008CB000200A90FCF71FFEFFF76FFAFDF76A
:103E000069FFFEF721F8FEF74BF8FEF785F849A0A9
:103E1000FFF712FD4D48FDF777FDFCF7C7FC00905A
:103E20004B4968460088C8806846408808814A48EF
:103E30004849016049498160494941604949C16037
:103E400049494A4D016129688847E96848488847D7
:103E500000244848089005940694082107940120FE
:103E600001AA13C23A4E0490B61DF07800901621B4
:103E7000EF69737822460120B84701200990059028
:103E800008200694079408940190029403940494E3
:103E900000940123AF69F27871781846B847B0787A
:103EA00000280CD02C480421AA6A40389047284F9B
:103EB000B0780028387806D004281FD037E0696B26
:103EC00000208847F3E7012831D1052002210007AF
:103ED000FCF799FD2049284BBA8840392748FDF75F
:103EE00093FE19A0FFF7A8FC022201213B78BA56E5
:103EF000795623A0FFF7A0FC3C7018E00A98294AE5
:103F0000401CC0B203460A90134827A14038FFF76F
:103F1000A3FC11480721AA6A4038904705201021C8
:103F20000007FCF770FDFF20F530FCF785FC286EDC
:103F30008047BDE744657669636520697320696ED3
:103F40006974204F4B2E2E2E0D0A00008801002090
:103F500000000020ED1F000814010020AD1F000824
:103F6000F91F0008E11F0008D51F0008E83F0008FE
:103F700000A1BC33B80B0000FFFF0000C00100200F
:103F80005273736956616C75653A25642C536E7271
:103F900056616C75653A25642C53746174653A25D5
:103FA000640D0A00B83F0008257325303364000013
:103FB00010B5FCF797FB10BD50494E47000C0B0A9B
:103FC00008090706050000000000000000010203C8
:103FD0000406070809030406080C10182030000026
:103FE0000000010203040000D5200008B1200008F1
:103FF00079230008452300080122000859220008FF
:10400000E12300087925000879200008F12600083E
:1040100005230008BD260008DD260008A5220008AB
:10402000E7260008A92600089D2200087528000838
:104030008D2200087D280008952200084D230008E5
:10404000A9230008CF2000081D210008D522000860
:1040500071250008C01200001F000000A816000013
:1040600017000000841C00000F000000E425000081
:104070001E000000B42D00001600000008390000EA
:104080000E0000002C4C00001D000000685B0000CA
:1040900015000000747200000D0000005898000028
:1040A0001C00000034B7000014000000E8E4000029
:1040B0000C000000783101001B000000686E010058
:1040C0001300000034CA01000B0000002862020047
:1040D0001A00000040DB0200120000003C930300C5
:1040E0000A000000C0C204001900000060B305000F
:1040F00011000000382007000900000020A107007F
:1041000000000000050403090A0100060208060673
:10411000060606063441000800000020D400000016
:10412000C838000808420008D4000020AC0600008F
:10413000D838000800000000400000000000000027
:10414000000000000000000080841E00000000004D
:1041500000000000FF000000000000000000000060
:10416000000000000000000000000000FCA9F1D2E7
:104170004D624040FCA9F1D24D623040FCA9F1D221
:104180004D622040FCA9F1D24D621040FCA9F1D251
:104190004D620040FCA9F1D24D62F03FFCA9F1D282
:1041A0004D623040FCA9F1D24D622040FCA9F1D211
:1041B0004D621040FCA9F1D24D620040FCA9F1D241
:1041C0004D62F03FFCA9F1D24D62E03FFCA9F1D273
:1041D0004D622040FCA9F1D24D621040FCA9F1D201
:1041E0004D620040FCA9F1D24D62F03FFCA9F1D232
:1041F0004D62E03FFCA9F1D24D62D03F00000000CB
:084200000000000000000000B6
:04000005080000C12E
:00000001FF
