:020000040800F2
:10000000A00700209D0100084B2200081D200008C9
:10001000492200089D0800087D3D000800000000FE
:10002000000000000000000000000000EF2C0008AD
:100030003909000800000000C52200084137000807
:10004000B7010008B7010008B7010008B7010008B0
:10005000B7010008B7010008B7010008B7010008A0
:10006000B7010008B70100083F090008B701000800
:10007000B7010008B7010008B7010008B701000880
:10008000B7010008B7010008B7010008B701000870
:10009000B7010008B7010008B7010008B701000860
:1000A000B7010008B7010008B7010008B701000850
:1000B000B70100081D380008B7010008B7010008A3
:1000C000B7010008B7010008B7010008B701000830
:1000D000B7010008B7010008B7010008B701000820
:1000E000B7010008B7010008B7010008B701000810
:1000F000B7010008B7010008B7010008B701000800
:10010000B7010008B7010008B7010008B7010008EF
:10011000B7010008B7010008B7010008B7010008DF
:10012000B7010008B7010008B7010008B7010008CF
:10013000B7010008B7010008B7010008B7010008BF
:10014000B7010008B7010008B7010008B7010008AF
:10015000B7010008B7010008B7010008B70100089F
:10016000B7010008B7010008B7010008B70100088F
:10017000B7010008B7010008B7010008000000003F
:10018000B7010008B7010008DFF80CD000F00EFB43
:1001900000480047F9510008A007002006488047A2
:1001A00006480047FEE7FEE7FEE7FEE7FEE7FEE75C
:1001B000FEE7FEE7FEE7FEE7D93700088901000801
:1001C0002DE9F05F0546002092469B46884606468C
:1001D000814640241BE0284641464746224600F01F
:1001E0004EFA53465A46C01A914110D3114618464A
:1001F000224600F035FA2D1A67EB01084F462246D9
:100200000120002100F02CFA17EB00094E41201EBE
:10021000A4F10104DFDC484631462A46434600F09B
:1002200000B830BCBDE8C09F40EA01039B0703D083
:1002300009E008C9121F08C0042AFAD203E011F825
:10024000013B00F8013B521EF9D27047D2B201E0E7
:1002500000F8012B491EFBD270470022F6E710B5CB
:1002600013460A4604461946FFF7F0FF204610BD24
:100270002DE9FE4F804681EA0300C00F0C46009036
:1002800021F0004123F00045B8EB0200A94105D25E
:100290004046214690461C460B46024623F000404D
:1002A000104347D0270DC7F30A00C3F30A51029049
:1002B000401A019040286BDAC3F3130040F4801B0E
:1002C0000098924620B10023D2EB030A63EB0B0B9C
:1002D00001985946C0F14002504600F0C1F9064667
:1002E0000D4650465946019A00F0D9F910EB080026
:1002F0006141002487EA115284EAE7731A4340D02F
:10030000009A62B3019A012A4FEA075215DC001BDA
:1003100061EB02014FF0004202EA0752CDE90042D0
:10032000001C41F5801132462B4600F0D9F903B08C
:1003300000F045B840462146F9E7001B61EB020199
:10034000001C41F5801300185B412018A2F500172E
:1003500047EB030140EAD570B6196D4111E06D0815
:100360004FEA360645EAC0754FEA0752001B61EBBB
:100370000201001C41F5801149084FEA30000019C4
:10038000514132462B4603B000F01CB800F099B939
:100390000098012240000023D0EB020263EBE073DF
:1003A000009821464FEAE074B8EB000061EB0401CD
:1003B000E9E783F000435BE781F0004158E730BC98
:1003C000BDE8C08F30BCBDE8C04FFFF7DFBF2DE9EF
:1003D000FE4F81EA030404F0004421F00041009440
:1003E0004FF0000B23F0004350EA01045ED052EAC4
:1003F00003045BD0C3F30A54C1F30A552C44A4F29E
:10040000F3340194A0FB0254C1F3130141F48011B1
:10041000C3F3130343F4801301FB024400FB034EB8
:10042000840A970A44EA815447EA8357A4FB076881
:1004300002958D0A05FB07854FEA932C04FB0C54AB
:100440002705029D4FEA065847EA1637B5EB08051F
:100450006EEB070C870E920E47EA811742EA831271
:10046000A7FB0201B6EB0B0164EB00042B0D43EA82
:100470000C335E1844EB1C50DA465146E7FB020190
:10048000C5F313044FEA0B3343EA14534FEA043223
:10049000019C43EA0603A4F10C040294009CCDE9FC
:1004A00000B400F01DF903B000F003B800200146CD
:1004B000F9E730BCBDE8C08F2DE9F04D81EA0304B7
:1004C00004F0004B21F0004514464FF0000A23F0E1
:1004D000004150EA050220D054EA01021DD0C5F3C4
:1004E0000A570246C5F31303C1F31300C1F30A56BA
:1004F00040F4801543F48013A7EB0608101BD64682
:1005000008F2FD3873EB050002D308F1010801E0A1
:1005100092185B41B8F1000F03DA00200146BDE8F4
:10052000F08D00204FF48011064684460EE0171B24
:1005300073EB050705D3121B63EB050306434CEA77
:10054000010C49084FEA300092185B4150EA01075C
:10055000EDD152EA030012D082EA040083EA0501D9
:10056000084305D0101BAB4106D20122002306E050
:1005700000224FF0004302E06FF0010253101AEB2B
:1005800006004CEB085110EB0A0041EB0B01BDE8F3
:10059000F04D00F096B80EB5C10F80EAE070084447
:1005A000CA07002140F233438DE80E000A460B468D
:1005B00000F096F803B000BD0EB540F23341029151
:1005C0000021CDE900110A460B4600F089F803B07E
:1005D00000BDC1F30A5210B5C1F3130140F2FF335D
:1005E00041F480119A4201DA002010BD40F23343F9
:1005F0009A42A2F2334203DC524200F040F810BDAE
:10060000904010BD30B5041E71F1000404DB4FF0C2
:100610000044404264EB0101141E73F1000405DB49
:100620001C464FF00043524263EB0403994208BF5B
:10063000904230BD30B50B460146002020220124F7
:1006400009E021FA02F59D4205D303FA02F5491BA0
:1006500004FA02F52844151EA2F10102F1DC30BDB6
:10066000202A04DB203A00FA02F100207047914072
:10067000C2F1200320FA03F3194390407047202A67
:1006800004DB203A21FA02F00021704721FA02F33C
:10069000D040C2F120029140084319467047202AF9
:1006A00006DBCB17203A41FA02F043EAE07306E09A
:1006B00041FA02F3D040C2F12002914008431946AA
:1006C000704710B5141E73F1000408DA401C41F1A4
:1006D000000192185B411A4301D120F0010010BDC6
:1006E0002DE9F04D92469B4611B1B1FA81F202E03C
:1006F000B0FA80F220329046FFF7B2FF04460F4670
:1007000040EA0A0041EA0B0153465A46084313D017
:10071000114653EA010019D0C8F140025046FFF7D4
:10072000AEFF05460E46504659464246FFF798FF33
:10073000084305D0012004E020463946BDE8F08D8D
:100740000020054346EAE0762C4337430A986305C8
:10075000E40AA0EB08000022FD0A44EA47540A30EC
:1007600002D500200146E9E7010510196941DDE9DC
:10077000084500196941BDE8F04DA2E770B521F0C8
:10078000004303430CD0C1F30A550024D5EB040504
:1007900064EB0403D617AD1AB34102DB0020014617
:1007A00070BD201841EB025170BD0000064C074D92
:1007B00006E0E06840F0010394E807009847103431
:1007C000AC42F6D3FFF7E4FC80550008A0550008C2
:1007D0002DE9F04D00231A461B1A8A4103DB002045
:1007E0000146BDE8F08DC1F30A52C1F3130141F493
:1007F00080154FF0000BD10702D100186D41521E39
:100800000027044640F2FF11384601EB620A3E46DB
:100810008046024600204FF48011FFF730FFC219D6
:100820007141BB1846EB0100B4EB030C75EB000CF7
:1008300004D3E41A65EB000517460E46241908F1A7
:1008400001006D4180463428E3DDF91946EB0600CE
:10085000091BA84103D24FF0FF32134601E00022EA
:1008600013461BEB070046EB0A51BDE8F04DFFF7BE
:1008700028BF000072B602480178491C0170704719
:100880001800002004490878401E10F0FF0008708E
:1008900000D162B67047000018000020FEE700009B
:1008A0002DE9F041214800252C4601680068C1F37C
:1008B0000216C0F382271D484FF48071103800F0F3
:1008C00046F908B146F008060F20B04360F30F2444
:1008D00007201749B8434FF09047085C4FF4804118
:1008E00060F31F64384600F032F9010011484FF000
:1008F000010604D0002266F31744802104E065F36A
:10090000174400224FF4805100F02AF94FF400619F
:10091000384600F01CF90028204603D066F3070093
:10092000BDE8F08165F31740FAE7000010080048C1
:100930001F54000800040048704700F003B810205E
:1009400000F014B870B5044600F010F90546601CBC
:1009500000D0641C00F00AF9401BA042FAD370BD1D
:10096000102801D101F0CEBE70470000044910B537
:100970000A68024202D00860FFF7F2FF10BD0000D3
:10098000140401402DE9F84FDFF898B100234FF02F
:10099000010C4FF0030A4FF00F090BF1040EB9E000
:1009A0000CFA03F4224070D04D68022D01D0122DB4
:1009B0000ED1DD0800EB8508D8F820505E07F70E51
:1009C00009FA07F6B5430E69BE402E43C8F8206009
:1009D00007685E0091F804800AFA06F508F003083B
:1009E000AF4308FA06F848EA0708C0F800804F68E5
:1009F000012F05D0022F03D0112F01D0122F13D1B8
:100A0000D0F80880CF6828EA0508B74047EA080709
:100A10008760D0F804800F7928EA0408C7F300172C
:100A20009F4047EA08074760D1F804806FEA08074B
:100A3000BF0706D1C76AA743C8F3C0049C403C4324
:100A4000C462C468AC438D68B5402543C5604C683A
:100A5000E4005ED5344C256E45F001052566246E14
:100A600023F0030504F001040094304C2E19B468FF
:100A70009D072F0F09FA07F5AC43B0F1904F05D051
:100A80002B4DA84204D101251CE042E0002519E0CD
:100A9000284DA84201D1022514E0274DA84201D1DA
:100AA00003250FE0254DA84201D104250AE0244D7D
:100AB000A84201D1052505E0224DA84201D1062515
:100AC00000E00725BD402543B560DBF800405D46EA
:100AD0004E689443F60300D514432C60DEF80040C2
:100AE00075464E689443B60300D514432C600D4DF3
:100AF00008352C684E689443F60200D514432C60E8
:100B0000084D0C352C684E689443B60200D514434A
:100B10002C605B1C0A6832FA03F57FF441AF00F0E9
:100B200013B8000000040140001002400000014022
:100B30000004004800080048000C0048001000486D
:100B4000001400480018004818BCBDE8E08F006998
:100B5000084000D00120704742694A404261704716
:100B60000AB18161704781627047000001480068E6
:100B7000704700001000002002480168491C016015
:100B8000704700001000002010B50024032000F082
:100B90008FF8002000F008F808B1012401E000F00F
:100BA0001BF8204610BD000070B5054609484FF4FB
:100BB0007A7100240068B0FBF1F000F094FF08B1F6
:100BC000012404E000222946501E00F051F820467E
:100BD00070BD0000140000201E4808B5016E41F0F1
:100BE00001010166016E01F001010091816D41F08A
:100BF00080518165806D00F080500090032000F0EE
:100C000057F8002211466FF00B0000F031F8002277
:100C100011466FF00A0000F02BF8002211466FF029
:100C2000090000F025F800221146501F00F020F8BE
:100C300000221146101F00F01BF800221146901EE2
:100C400000F016F80022BDE808401146501E00F0E2
:100C50000FB800000010024000F01F020121914077
:100C60004009800000F1E020C0F80011704700004A
:100C7000F0B40E4B1B680C46C3F30223C3F1070507
:100C8000042D00D90425191D072901D2002300E0F5
:100C9000DB1E012606FA05F1491E214099409E40BF
:100CA000761E16403143F0BC01F0D0BA0CED00E0E6
:100CB000064900F0070208684FF6FF03184040EAB3
:100CC0000220034A10430860704700000CED00E06A
:100CD0000000FA051649B0F5007F0868C0F341200E
:100CE00009D0022805D0086820F4C06040F4806074
:100CF0000860002070470128FBD0086820F4C0601D
:100D000040F4007008600B483222006850430A4AE1
:100D1000B0FBF2F0401C00E0401E4A69520501D5CC
:100D20000028F9D148694005E3D503207047000049
:100D3000007000401400002040420F00024800688C
:100D400000F4C06070470000007000402DE9F84FCB
:100D5000044600270088E54D3E46010504F1200BBE
:100D60001DD5606E78B1B0F5800F11D0B0F5000FD1
:100D700004D0B0F5400F22D001270FE0E86840F41E
:100D80008030E8601BE00021201D01F09DFA03E0A7
:100D90000021584601F02EFB070010D03E46208867
:100DA000C00426D5A06EC0B1B0F1807F1AD0B0F1DA
:100DB000007F0DD0B0F1407F19D0012718E0D5F8A1
:100DC0008800616E20F440000843C5F88800E6E71B
:100DD000E86840F48030E86009E00021201D01F05F
:100DE00073FA03E00021584601F004FB0746F7B10F
:100DF0003E46206880033AD5A86D4FF00008C00039
:100E000009D4A86D40F08050A865A86D4FF0010886
:100E100000F080500090DFF8D8A2DAF8001041F41A
:100E20008071CAF80010FFF7A1FE814610E0D5F8E6
:100E30008800A16E20F040700843C5F88800D8E70C
:100E4000FFF794FEA0EB0900022801D9032705E073
:100E5000DAF80000C005F3D5002F7CD04FEA070672
:100E6000B8F1000F03D0A86D20F08050A86520785D
:100E7000C00707D0D5F88800A16B20F00300084315
:100E8000C5F888002078800707D5D5F88800E16B81
:100E900020F00C000843C5F888002078400707D5EB
:100EA000D5F88800216C20F030000843C5F8880090
:100EB0002078000707D5D5F88800616C20F0C000C5
:100EC0000843C5F888002078C00607D5D5F8880003
:100ED000A16C20F440700843C5F888002078800693
:100EE00007D5D5F88800E16C20F440600843C5F8C8
:100EF00088002088800507D5D5F88800E16D20F4AA
:100F000040200843C5F888002088400507D5D5F85B
:100F10008800216E20F440100843C5F8880020782E
:100F2000400607D5D5F88800216D20F440500843CD
:100F3000C5F888002078000607D5D5F88800616DCF
:100F400020F440400843C5F888002088C00509D532
:100F5000D5F8880000E01CE0A16D20F44030084383
:100F6000C5F8880020884FF0006780044FF0806843
:100F70004FD5D5F88800E16E20F040600843C5F8F1
:100F80008800E06EB8423CD1E86840F48010E86028
:100F90003FE0D5F8900010F4407015D0D4F88410DC
:100FA000814211D0D5F89000D5F8901020F440700F
:100FB00041F48031C5F89010D5F8901021F48031BB
:100FC000C5F89010C5F89000C00710D0FFF7CEFD0F
:100FD000074641F2883906E0FFF7C8FDC11B4945C5
:100FE00001D903263CE7D5F890008007F4D5D5F861
:100FF0009000D4F8841020F440700843C5F89000A5
:101000002EE7404505D10121201D01F05DF900B119
:1010100006462068000317D5D5F88800216F20F018
:1010200040600843C5F88800206FB84204D1E868E2
:1010300040F48010E86007E0404505D10121201D03
:1010400001F042F900B106462068400317D5D5F8F3
:101050008800616F20F040600843C5F88800606F29
:10106000B84204D1E86840F48010E86007E04045E9
:1010700005D10121201D01F027F900B10646208885
:1010800040041AD5D5F88800A16F20F040500843DD
:10109000C5F88800A06FB0F1805F03D0B0F1005FA9
:1010A00005D00AE00221201D01F00EF903E0022123
:1010B000584601F09FF900B106462088000407D584
:1010C000D5F88800E16F20F080400843C5F888001B
:1010D0002068C00307D555F8880FD4F8801020F099
:1010E000004008432860304600F004B80010024079
:1010F0000070004018BCBDE8E08F00002DE9F0470B
:101100000F46050058D03F4E306800F00700B84247
:1011100009D2306820F0070038433060306800F0B2
:101120000700B84248D12878374CC0072CD06868EF
:10113000032811D0022812D0216898B1490500294E
:101140003ADAA16821F003010143A160FFF70EFD27
:10115000804641F2883910E021688901EFE7216873
:101160008903ECE78907EAE7FFF700FDA0EB080138
:10117000494502D90320BDE8F087A068696800F0FE
:101180000C00B0EB810FEFD12878800705D5A0685F
:10119000A96820F0F0000843A060306800F0070064
:1011A000B8420BD9306820F007003843306030680F
:1011B00000F00700B84201D00120DCE728784007A2
:1011C00005D5A068E96820F4E0600843A0602878AD
:1011D000000706D5A068296920F4605040EAC100E4
:1011E000A06000F041F8A168084AC1F30311515C06
:1011F00001F01F01C84006490860BDE8F047002023
:10120000FFF7D2BC00200240001002402854000822
:1012100014000020014800687047000014000020FE
:101220000548064900688968054AC1F30221515CF6
:1012300001F01F01C8407047140000200010024058
:10124000685400080548064900688968054AC1F3E2
:10125000C221515C01F01F01C840704714000020FA
:10126000001002406854000870B525490023184654
:101270008A68CC6812F00C0204F00306214C4FEA95
:10128000640509D00C2A05D0042A26D0082A00D1EA
:10129000284670BD012E10D10B681B0704D4D1F86D
:1012A0009430C3F3032302E00B68C3F30313164E19
:1012B00056F823307AB10C2AEBD1C86800F003024B
:1012C000C868C0F30210401C022A08D0032A09D0C3
:1012D000B3FBF0F008E0184670BD204670BDB4FBCB
:1012E000F0F001E0B5FBF0F0CA68C968C2F306226D
:1012F0005043C1F34161491C4900B0FBF1F070BD9E
:10130000001002400024F400385400082DE9F8438E
:1013100005007CD0FD4CA06800F00C06E06800F0F1
:1013200003072878C00661D576B10C2E01D1012FB4
:101330000AD0A8690028206878D040F00100206019
:10134000FFF714FC804659E02068800702D5A869A1
:101350000028DED0286A2168090703D5216801F03A
:10136000F00104E0D4F89410F02202EA111188424E
:1013700015D901F0C3F8002849D1206840F00800D1
:1013800020602068296A20F0F0000843206060682F
:10139000E96920F47F4040EA0120606015E02068A0
:1013A00040F0080020602068296A20F0F00008431F
:1013B00020606068E96920F47F4040EA01206060B5
:1013C000286A01F09BF80028D6D1FFF74DFFA168ED
:1013D000CF4AC1F30311515C01F01F01C840CD4950
:1013E00008600020FFF7E0FB00287DD12FE000BF60
:1013F000FFF7BCFBA0EB0800022876D82068800726
:10140000F6D5206840F008002060206801E0BBE0CD
:101410000CE0296A20F0F000084320606068E96968
:1014200020F47F4040EA0120606010E020F00100DD
:101430002060FFF79BFB804606E000BFFFF796FBAE
:10144000A0EB08000228D8D820688007F6D42878B6
:10145000C00740D0082E18D00C2E01D1032F14D075
:101460006868B0F5803F17D0B0F5A02F206817D07E
:1014700020F480302060206820F48020206068689C
:10148000E0B1FFF773FB804614E02068800322D5AB
:101490006868002878D01EE0206840F48030EDE7CE
:1014A00040F480202060F7E7FFF760FBA0EB080026
:1014B0006428A2D820688003F6D50CE0FFF756FB1D
:1014C000804605E0FFF752FBA0EB0800642894D8A3
:1014D00020688003F6D4287880073BD5042E11D0ED
:1014E0000C2E04D1022F01E036E1A1E00AD0E86819
:1014F000002820681ED040F480702060FFF736FB83
:1015000007460CE0206840050CD5E8680028C1D0EB
:1015100008E000BFFFF72AFBC01B022893D8206811
:101520004005F7D56068297C20F0F85040EA01605A
:1015300060600FE020F480702060FFF717FB074623
:1015400005E000BFFFF712FBC01B022870D820681F
:101550004005F7D42878000729D568690028D4F811
:10156000940012D040F00100C4F89400FFF7FEFA96
:10157000074604E0FFF7FAFAC01B022858D8D4F84F
:1015800094008007F6D512E0EDE020F00100C4F8E9
:101590009400FFF7EBFA074605E000BFFFF7E6FA15
:1015A000C01B022844D8D4F894008007F6D42878C9
:1015B000400768D5A06D0027C00008D4A06D40F09A
:1015C0008050A065A06D012700F080500090524827
:1015D0000168C90512D40168814641F48071016037
:1015E000FFF7C4FA804605E0FFF7C0FAA0EB080059
:1015F00002281DD8D9F80000C005F5D5A868012833
:1016000017D00528D4F8900018D020F00100C4F8B5
:101610009000D4F8900020F0040000BFC4F89000BF
:10162000A86841F28839D0B1FFF7A0FA804611E0EE
:101630006BE0D4F8900040F00100EFE740F00400C8
:10164000C4F89000F5E700BFFFF790FAA0EB08019F
:1016500049455AD8D4F890008007F5D50EE0FFF739
:1016600085FA804606E000BFFFF780FAA0EB08018C
:10167000494570D8D4F890008007F5D41FB1A06D0B
:1016800020F08050A065A86AF0B30C2E6BD0022821
:10169000206820F08070206004D0206810F0205F67
:1016A00047D04AE0FFF762FA064604E0FFF75EFA29
:1016B000801B02284FD820688001F7D4286BE96A84
:1016C000000110380843696BAA6B0902120941EA4C
:1016D00042410843A98F114A490802EB415108438E
:1016E00095F840104908120102EB41610843E0609F
:1016F000206840F080702060E06840F08070E0601A
:10170000FFF734FA054610E02BE024E00010024019
:101710002854000814000020007000400000E0FF82
:10172000FFF724FA401B022815D820688001F7D55E
:1017300017E0E06820F00300E060E0680B49084033
:10174000E060FFF713FA054608E000BFFFF70EFA66
:10175000401B022802D90320BDE8F88320688001DD
:10176000F4D40020F8E70120F6E70000FFFFEEFECA
:101770002DE9F041040005D00025A56294F85D0034
:1017800018B107E00120BDE8F08184F85C502046E4
:1017900000F044F8022384F85D302068016821F0ED
:1017A00040010160E0684FF4E066B04201D90021D9
:1017B00001E04FF48051B0F5706F02D0B04200D01C
:1017C000A562276B012227B9B04201D9236300E04B
:1017D0002263D4E901031843D4E9043633431843A0
:1017E000238B03F400731843E3691843236A1843F7
:1017F000A36A184323681860636B606AA66918437C
:101800000427E36807EA1646334318430843216870
:101810004860256684F85D200020B4E700B50068C4
:101820000E4987B0884217D10D48016E41F48051AE
:101830000166006E694600F480500590E02000903B
:1018400002200190002002900320039005200490C4
:101850004FF09040FFF796F807B000BD0030014010
:10186000001002402DE9F05F044690F85C0000276C
:101870000A9E1D4692468B464FF0010901280ED064
:10188000012084F85C00FFF771F9804694F85D0050
:10189000616801280CD0B1F5827F07D102E00220F7
:1018A00000F011B9A16809B9042801D0022700E1AC
:1018B000BBF1000F24D0BAF1000F21D005B394F88A
:1018C0005D00042802D0052084F85D000020206619
:1018D000C4F840A0A4F84650A4F84450C4F838B066
:1018E000E587A587E0642065E0684FF4E061884201
:1018F00001D8012D06D92068426822F4805205E003
:101900000127D6E02068426842F480524260206895
:101910000268520603D4026842F040020260E068A6
:101920008842606845D908B1012D3AD1A06B216881
:101930000088C860A06B801CA063E08F401EE08719
:101940002FE02068816889070FD5E18F69B1B9F16F
:10195000010F0AD1A16B0988C160A06B801CA06334
:10196000E08F401EE0874FF0000920688168C907BA
:101970000FD0B4F8461061B1C068216C0880206CAB
:10198000801C2064B4F84600401EA4F846004FF0C6
:101990000109FFF7EBF8A0EB0800B04201D3701C7F
:1019A00075D1E08F0028CCD1B4F846000028C8D10A
:1019B00076E008B1012D6CD1E08F0128A06B08D929
:1019C00021680088C860A06B801CA063E08F801E27
:1019D00007E0216800780873A06B401CA063E08FCB
:1019E000401EE08755E02068816889071AD5E18F9D
:1019F000C1B1B9F1010F15D1E18F0129A16B07D94F
:101A00000988C160A06B801CA063E08F801E06E087
:101A100009780173A06B401CA063E08F401EE08733
:101A20004FF0000920688168C90728D0B4F8461033
:101A300029B3B4F84610012914D9C068216C088074
:101A4000206C801C2064B4F84600801EA4F8460078
:101A5000B4F84600012810D82068416841F480514C
:101A600041600AE0007B216C0870206C401C2064FF
:101A7000B4F84600401EA4F846004FF00109FFF7F5
:101A800075F8A0EB0800B04202D3701C01D018E03A
:101A9000BEB1E08F0028A6D1B4F846000028A2D13C
:101AA00042463146204601F069F810B10127202056
:101AB0002066012084F85D00002084F85C00384630
:101AC000EEE60327F5E730BCBDE8C09F4FF0E0210C
:101AD0000428086903D020F004000861704740F032
:101AE0000400FAE7704710B5401EB0F1807F01D3C3
:101AF000012010BD4FF0E02460610F21601700F05D
:101B0000A5FB0020A06107202061002010BD10B5BA
:101B1000FFF7E8FF10BD70477047704770B590F849
:101B20003C20012A24D0012480F83C40022280F885
:101B30003D200268536895680E4EB24202D00E4EA8
:101B4000B24203D123F470064B68334323F070068E
:101B50000B688968334325F0800529435360026888
:101B6000916080F83D40002180F83C10084670BD2F
:101B7000022070BD002C01400034014010B504006B
:101B800003D094F83D0010B107E0012010BD002003
:101B900084F83C00204600F00DF8022084F83D0057
:101BA000211D206801F040FE012084F83D00002046
:101BB00010BD000008B500680B49884212D10B48DF
:101BC000816D41F002018165806D002200F002000C
:101BD000009011461D20FFF74BF8BDE808401D207E
:101BE000FFF73AB808BD00000004004000100240B2
:101BF0000168CA6842F00102CA6000688268074949
:101C00000A40062A08D082680A40B2F5803F03D015
:101C1000016841F0010101600020704707000100E8
:101C200070B5044690F83C00012817D0012584F8CF
:101C30003C50022084F83D0020688268324E3240D9
:101C400022F47F4282600868502839D00DDC2028B9
:101C500055D005DC98B3102843D150E0022070BD68
:101C600030284CD040283CD141E0602830D070284A
:101C70000CD0B0F5805F03D0B0F5005F31D112E039
:101C800020688168204A7032114016E0CB68D1E9A3
:101C90000121206801F028FE21688868304040F06A
:101CA000770088601DE0CB68D1E90121206801F050
:101CB0001BFE2068816841F48041816011E01EE0D4
:101CC000CA684968206801F021FE5021206806E0BA
:101CD000CA684968206801F02AFE6021206801F086
:101CE0000DFE84F83D50002084F83C0070BDCA68A9
:101CF0004968206801F00AFE40212068EFE7226869
:101D000001461046EBE7000088FFFEFF704770B504
:101D10000446006801694FF00005C943890715D4DE
:101D2000C168C943890711D4E91E016101202077E8
:101D3000206880698007204602D0FFF7E7FF04E0B3
:101D400000F0A7F8204600F0A5F825772068016983
:101D5000C943490717D4C168C943490713D46FF071
:101D600004010161022020772068806910F4407F1F
:101D7000204602D0FFF7CAFF04E000F08AF82046B0
:101D800000F088F8257720680169C943090716D44F
:101D9000C168C943090712D46FF00801016104202A
:101DA00020772068C0698007204602D0FFF7AEFF89
:101DB00004E000F06EF8204600F06CF8257720680B
:101DC0000169C943C90617D4C168C943C90613D4F8
:101DD0006FF010010161082020772068C06910F4BD
:101DE000407F204602D0FFF791FF04E000F051F859
:101DF000204600F04FF8257720680169C943C907DC
:101E000008D1C168C943C90704D1891E01612046B0
:101E100000F042F820680169C943090609D4C16885
:101E2000C943090605D46FF0800101612046FFF720
:101E300073FE20680169C943C90509D4C168C94353
:101E4000090605D46FF4807101612046FFF763FE37
:101E500020680169C943490609D4C168C9434906D4
:101E600005D46FF040010161204600F023F820689E
:101E70000169C94389060BD4C168C943890607D4DF
:101E80006FF0200101612046BDE87040FFF745BEBC
:101E900070BD7047704700000449006809688842B7
:101EA00003D103480168491C016070479801002074
:101EB0000C000020704710B5040003D094F87100A6
:101EC00010B107E0012010BD002084F8700020460A
:101ED00000F026F8242084F871002068016821F0C1
:101EE00001010160204601F0C7FD0128EBD0606AC6
:101EF00010B1204601F02DFD2068416821F4904189
:101F000041602068816821F02A01816020680168B1
:101F100041F0010101602046BDE8104001F07DBDA7
:101F200000B500680F4987B0884218D10E48016E8D
:101F300041F480410166006E694600F480400590DE
:101F40004FF4C06000900220019000200290032016
:101F50000390072004904FF09040FEF713FD07B068
:101F600000BD000000380140001002402DE9F84398
:101F7000044690F871001F4616460D4620284BD1A6
:101F8000C5B1BEB194F87000012845D0012084F895
:101F900070004FF00008C4F87480212084F87100AC
:101FA000FEF7E4FDA4F850608146A4F852604FF4B7
:101FB000805615E00120BDE8F8838021204601F01D
:101FC000ABFED8B9A068B04201D12069C0B115F804
:101FD000010B21680885B4F85200401EA4F8520095
:101FE000B4F852004B464FF0000200970028E4D1AD
:101FF0004FF04001204601F08FFE30B10320DAE7B8
:1020000035F8020BC0F30800E3E7202084F87100E4
:1020100084F870800020CEE70220CCE7FEE70000C5
:102020002DE9F041394886B0C16C41F00401C1642A
:10203000C16C01F004010591C16C41F00101C16462
:10204000C16C01F001010591C16C41F00201C16454
:10205000C06C4FF0904700F002000590012240F262
:1020600013113846FEF77CFDDFF8A4804FF4845648
:10207000012231464046FEF773FD012540F2011072
:10208000CDE900050024CDE9025469463846FEF743
:1020900079FC12200090CDE901546946384603943A
:1020A000FEF770FC41F670508DE831006946194822
:1020B000FEF768FC0096CDE901546946404603945A
:1020C000FEF760FC38148DE8310069463846FEF7AB
:1020D00059FC0820CDE900040224694640460294D8
:1020E000FEF750FC102000900B48CDE90104694632
:1020F0004046FEF747FC002211460A20FEF7B8FDD5
:102100000A20FEF7A9FD06B0BDE8F08100100240EC
:10211000000400480008004800001110134810B5E2
:10212000114901604FF48271416000214FF4E06277
:10213000C0E902124FF400720161C0E905122822C1
:10214000C0E9072107224162C0E90A1201630821A0
:102150004163FFF70DFB002805D0BDE81040472183
:1021600003A001F00CBE10BD00300140340100207E
:102170002E2E2F5372632F7370692E6300000000A0
:1021800010B5184888B0164901604F210024C0E9F5
:10219000011440F2E731C0E9031480218161FFF7A7
:1021A000EDFC18B1402110A001F0E9FD4FF4805082
:1021B000039003A90B48FFF733FD18B146210AA08D
:1021C00001F0DDFD0094694606480294FFF7A6FC85
:1021D000002803D04D2104A001F0D1FD08B010BDAE
:1021E00000040040980100202E2E2F5372632F749C
:1021F000696D2E63000000000E4810B50C490160A7
:102200004FF4E1314160002181600C22C160C0E9DE
:1022100004128161C16101624162FFF74CFE002836
:1022200005D0BDE81040582103A001F0A8BD10BDA5
:1022300000380140D80100202E2E2F5372632F75D5
:10224000736172742E630000FEE770470907090E80
:10225000002806DA00F00F0000F1E02080F8141DDD
:10226000704700F1E02080F80014704770B5074C0B
:1022700015460A46A18001461E460548FDF7D4FFD3
:102280006570A6700120207070BD00000000002065
:10229000D80000200149032008707047000000208A
:1022A0000149022008707047000000200149042005
:1022B0000870704700000020014905200870704731
:1022C00000000020704700002DE9F041444C054615
:1022D0008846E0680026810728680DD0E16801F093
:1022E0000301814216D1A8B1E0686968C0F3021009
:1022F000401C88420ED120E0012804D0022805D0DD
:10230000032807D108E02168890701E02168490511
:10231000002907DB01265FE02168890302D42168D8
:102320004903F5E7E1686A686FF00F0321F0730174
:1023300003EB021211430143E160206820F080604A
:102340002060FEF713FC074605E000BFFEF70EFC19
:10235000C01B022837D820680001F7D4B8F1000F5D
:1023600018D0B8F1010F1ED0287D4FF07E414008F3
:1023700001EB4060A96840EA01202169194A114037
:1023800008432061206840F080602060FEF7EEFB8B
:1023900007461AE0A868E9680002090940EA4140D6
:1023A0002169114AEBE7288A1049400801EB4050A7
:1023B000A96840EA012021690D4AE0E7FEF7D6FB53
:1023C000C01B022801D9032606E020680001F5D5CC
:1023D0002069A969084320613046BDE8F08100000A
:1023E00000100240FF80FFF9FF80FDFF0000E0FFCA
:1023F000FF809FFF2DE9F0413D4C06468846E0688E
:102400000025810730680DD0E16801F003018142A9
:1024100016D1A8B1E0687168C0F30210401C884270
:102420000ED120E0012804D0022805D0032807D1CE
:1024300008E02168890701E021684905002907DBD8
:10244000012551E02168890302D421684903F5E799
:10245000E16872686FF00F0321F0730103EB021261
:1024600011430143E160206820F080502060FEF7B6
:102470007DFB074605E000BFFEF778FBC01B022886
:1024800029D820688000F7D4B8F1000F15D0307C2F
:102490004FF07E41400801EB4060B16840EA012006
:1024A0006169144A114008436061206840F080501F
:1024B0002060FEF75BFB07460FE0B068F1680002A2
:1024C000090940EA414061690B4AEBE7FEF74EFB20
:1024D000C01B022801D9032506E020688000F5D53D
:1024E00060697169084360612846BDE8F0810000B9
:1024F00000100240FF80FFF9FF80FDFFF8B51C4D82
:1025000006460024A86DC00002D5FEF717FC0DE0BA
:10251000A86D40F08050A865A86D00F08050009034
:10252000FEF70CFCA96D21F08051A965B0F5007F84
:1025300004D0802E07D94FF003040AE0802E08D97A
:10254000A02E01D804E001D1022402E0702E00D1B7
:1025500001240848016821F0070121430160006857
:1025600000F00700A04201D00120F8BD0020F8BD16
:1025700000100240002002400120704710B500F01A
:102580001DFC032804D0042803D0052803D0002014
:1025900010BD022010BD012010BD082070470000B2
:1025A00010B50E4C20610E4800F096FC002000F0A3
:1025B00095FF012000F0E9FE0021084600F065FDCE
:1025C0000421002000F0BDFF00234FF6FF701A46E3
:1025D000014600F0B3FD0020A07010BD20000020D7
:1025E00005270008F8B5324CA07800285ED0FEF729
:1025F00041F90020A070FEF745F900F0D5FB054633
:102600004FF6FF7000F0C4FBE80704D0206910B15A
:10261000006800B18047A80716D5FF226946254803
:1026200000F016FC2348143800F0CEFB206958B1A6
:1026300086684EB11F489DF80010143890F90D308F
:1026400090F90C201430B047680604D5206910B109
:10265000006900B18047280608D5206930B181693A
:1026600021B1E84340F30020401C8847A80511D55C
:1026700000F0A4FB042804D000F0A0FB052804D03F
:1026800008E0206930B1406802E0206910B1C068FC
:1026900000B18047A80609D52069002806D0C06887
:1026A000002803D001B0BDE8F0400047F8BD0000AD
:1026B00020000020640200202DE9F0411F469046D2
:1026C0000D46012400F0A6F8284600F065FE002023
:1026D00000F03EF80120FEF730F9094D2E6805E0C4
:1026E00000F0CDFB404501DD002403E02868801B9D
:1026F000B842F5D300F08EF92046BDE8F081000025
:102700000C00002001490120887070472000002043
:1027100070B50025012000F07DF8002000F088FE53
:1027200000240120FEF709F900F0A9FB00F00100E8
:10273000A040641C0543E4B2202CF2D300F06AF9F7
:10274000284670BD00F042BC00F048BC00F097BBCA
:1027500010B500234FF6FF701A46014600F0EEFC5C
:102760000548417811B16FF07F4001E0C0688001F9
:10277000BDE8104000F05CBE2000002010B5002332
:102780004FF6FF701A46014600F0D8FC0548417824
:1027900011B16FF07F4001E0C0688001BDE81040DA
:1027A00000F05ABE2000002070B505460C460023FC
:1027B00040F201201A46014600F0C0FC00F042FB46
:1027C0000146084801290AD00472064800F068FD55
:1027D00021462846BDE87040002200F04DBCC4737D
:1027E000F3E700006403002000F0D6BD074B084A61
:1027F000012807D0D079012807D119701172044837
:1028000000F04EBD1970D173F9E770472000002029
:102810006403002010B50A4C012805D0002000F008
:10282000A1FD0020607010BD012000F09BFD6178CB
:1028300020788142F7D06070BDE8104000F002B807
:102840002300002070B504460B480470447001203A
:10285000FFF7E0FF4FF4E860451C24B1342100F09D
:102860001BFF442103E0142100F016FF2421284619
:10287000BDE8704000F010BF230000202DE9F05F9C
:102880002B4CDDE90D80DDE90B7A0E461399DDF85E
:102890003CB06170994615465FEA080118D0207077
:1028A000002000F02DFE0AF0FF0000F062FC21483D
:1028B0000122214B80F82820E9B280F838109B5D76
:1028C00080F8393080F83A9026B1012E04D005E026
:1028D000FF20E4E70B2D0AD00C2D08D0002380F850
:1028E0003B300270052905D0062903D007E080F8A7
:1028F0003B20F6E70C2F02D20C21818100E087817A
:1029000080F80E802178C17380F810B0129941745C
:102910000120FFF77FFF0748283000F031FC054811
:1029200000F0BEFC4FF6FF70E06000F007B800005A
:102930002000002064030020DC54000830BCBDE807
:10294000C09F00F0A3BD00002DE9F05F8B460CA9ED
:10295000DDE90A0791E84402DDE9118A234C0125EB
:10296000DFF88CC084F82850C1B284F838101CF805
:1029700003C084F839C084F83A7013B1012B02D037
:1029800003E00B280AD00C2808D0002084F83B0074
:102990002570052905D0062903D007E084F83B50AF
:1029A000F6E70C2A02D20C20A08100E0A281114D92
:1029B000A6732878E07384F8109084F811800020C2
:1029C00000F08CFD94F8280000B10120FFF722FFF1
:1029D0000648283000F0D4FB044800F061FC58465B
:1029E00000F022FDC5F808A000F006B8640300203E
:1029F000DC5400082000002030BCBDE8C09F10B5AA
:102A00000C4600F0C9FC204600F00EFDBDE8104069
:102A100000F092BD10B5042000F054FDBDE8104058
:102A20000220FDF78ABF002000F058BD00F038BB3F
:102A300070B5434C0E462DED0A8B94F83900414990
:102A400000EB400094F8385001EB0010C5F10C0188
:102A500000EBC10010ED309BA0891C34FDF7ACFDEC
:102A60009FED391B53EC112BFDF702FC53EC192B96
:102A7000FDF7ADFC41EC1A0BA07F00F00300001D38
:102A8000FDF79AFD41EC180BE07F1C3C00B10220E1
:102A9000281A8000FDF77FFD41EC1C0BF000694215
:102AA00000EB8100217C9FED2ABB00EB0110A17B94
:102AB000012943D00021401A1C30FDF76CFD53EC76
:102AC0001C2BFDF7F9FC41EC100B01F095F953ECD0
:102AD000182B51EC100BFDF77AFC41EC180B53EC62
:102AE0001B2BFDF78FFD03D3B0EE4B8AF0EE6B8A04
:102AF0009FED190B51EC180B53EC102BFDF7B8FBA5
:102B000053EC192BFDF763FC41EC100B51EC1A0B45
:102B100053EC102BFDF7ACFB9FED111B53EC112B6D
:102B2000FDF7A6FB41EC100B01F0F2F900F01CB828
:102B300051EC100BBDE87040FDF74BBD1421BAE716
:102B40006403002038000020000000000000114055
:102B50000000000000000000000000000000204015
:102B60002B8716D9CEF7EF3FBDEC088BBDEC02CB1F
:102B7000FFF7DEBF00F090BD00F094BDF8B515463C
:102B80000E460B460092044600224FF4C05100F05E
:102B900019F888B93346002280212046009500F0BC
:102BA0005CF848B9334600224FF4C06120460095D6
:102BB00000F008F8002804D0206E40F020002066C5
:102BC0000320F8BD2DE9F0471D4617460E46044682
:102BD0004FF4C068DDF820900CE0464501D107B9FC
:102BE000007B681C06D0FDF7C1FFA0EB0900A842DE
:102BF00008D23DB1206881683140B942EDD1002052
:102C0000BDE8F0872068416821F0E001416060681C
:102C1000B0F5827F0BD1A068B0F5004F02D0B0F5BF
:102C2000806F04D12068016821F040010160A06A32
:102C3000B0F5005F09D12068016821F400510160FE
:102C40002068016841F400510160012084F85D00B2
:102C5000002084F85C000320D2E72DE9F0411D46F6
:102C600017460E460446DDF8188008E0681C06D0BA
:102C7000FDF77CFFA0EB0800A8420BD255B12068FD
:102C8000806836EA000030D00020B842EED1002043
:102C9000BDE8F0812068416821F0E0014160606892
:102CA000B0F5827F0BD1A068B0F5004F02D0B0F52F
:102CB000806F04D12068016821F040010160A06AA2
:102CC000B0F5005F09D12068016821F4005101606E
:102CD0002068016841F400510160012084F85D0022
:102CE000002084F85C000320D2E70120CDE7704784
:102CF00001B501226946892000F0A0FC08BD000052
:102D0000174908B5884204D9E1208DF80000E92070
:102D10001EE01449884204D9D7208DF80000D8203D
:102D200016E01149884204D9C1208DF80000C52061
:102D30000EE00E49884204D975208DF800008120EC
:102D400006E00B49884205D96B208DF800006F2002
:102D50008DF8010002226946982000F06FFC08BD42
:102D600000E9A43580F8A9328044E52D000B6B1BE7
:102D700040FC5419054810B5407808B1062801D127
:102D800000F00CFCBDE8104000F0FCBBC8000020C7
:102D900008B5010A8DF800108DF80100022269467D
:102DA000104600F04BFC08BD08B50222694612200F
:102DB00000F0DEF8BDF8000040BA08BD01484078D8
:102DC00070470000C800002038B504460322694659
:102DD000142000F0CDF81A498878207040B10128FD
:102DE00016D014212046FDF738FA0F20207038BD88
:102DF0009DF8000020719DF8010040424010A07134
:102E00009DF802004042401060710020A06038BD73
:102E10009DF800004042401020739DF8010080287A
:102E200001D2800802E0A0F58070801060739DF8E8
:102E3000020040424010A0734868206138BD000085
:102E4000C80000200148807870470000C8000020BA
:102E5000F8B506460C4600208DF800001546694678
:102E6000204600F019F82278AA4201D90120F8BDC5
:102E700031469DF8000000F049F80020F8BD08B583
:102E800001226946152000F073F89DF800004042C9
:102E900040F3470008BD000038B50D460446022245
:102EA0006946132000F064F80A48807801280AD1A6
:102EB00040F2047000F08AF8C00904D040F20270B9
:102EC00000F084F801E09DF8000020709DF80100FA
:102ED000287038BDC800002010B500F0B5F800F02B
:102EE0005DFB002000F0FAFA4FF4A071072000F01B
:102EF00012F97F20FFF7FCFE012000F005F90249DE
:102F00000120487010BD0000C80000202DE9F041EC
:102F100015460E460446FFF72DFF4FF480774FF01D
:102F20009048002239464046FDF71AFE1E210F4800
:102F300000F0EAFB21460D4800F0E6FB00210B48BB
:102F400000F0E2FB002406E00021084800F0DCFB72
:102F50003055641CA4B2AC42F6D301223946404637
:102F6000FDF7FEFDBDE8F04100F00CBB3401002090
:102F70002DE9F04115460E460446FFF7FBFE4FF4DF
:102F800080774FF09048002239464046FDF7E8FD33
:102F900021460D4800F0B8FB00210B4800F0B4FBBF
:102FA000002406E00021084800F0AEFB3055641C08
:102FB000A4B2AC42F6D3012239464046FDF7D0FD1B
:102FC000BDE8F04100F0DEBA3401002008B501226E
:102FD000694600F003F89DF8000008BD2DE9F041B6
:102FE00015460E460446FFF7C5FE4FF480774FF0B6
:102FF0009048002239464046FDF7B2FD1D21114898
:1030000000F082FB210A0F4800F07EFBE1B20D4880
:1030100000F07AFB00210B4800F076FB002406E06C
:103020000021084800F070FB3055641CA4B2AC428B
:10303000F6D3012239464046FDF792FDBDE8F04146
:1030400000F0A0BA3401002010B50A20FDF77AFC88
:103050004FF09044002201212046FDF781FD14200D
:10306000FDF770FC012211462046FDF779FDBDE811
:1030700010400A20FDF766BC10B5144600F080F938
:103080002046BDE8104000F043BA08B502228DF892
:1030900000008DF8011069468F2000F0CFFA08BDBE
:1030A00010B500221146C52000F0C8FA01490720DA
:1030B000487010BDC800002008B5010A8DF8001046
:1030C0008DF8010005488078002805D10222694664
:1030D00040F2BE6000F0E6FA08BD0000C800002023
:1030E00008B5010A8DF800108DF8010005488078B8
:1030F000002805D10222694640F2BC6000F0D2FAF5
:1031000008BD0000C800002001B5012269469D20CD
:1031100000F094FA08BD08B500F007008DF8000033
:10312000080C8DF80100080A8DF802008DF80310D4
:1031300004226946972000F081FA08BD1CB5040AF4
:103140008DF800408DF80100080A8DF80200100A81
:103150008DF804008DF80520180A8DF806008DF80A
:10316000031008228DF807306946104600F066FA11
:103170001CBD01B501226946A02000F05FFA08BD20
:1031800030B504462DED028B83B00020334900900A
:10319000019020788978884201D000F0E3F8207807
:1031A000B0B1012810D1207C8DF80000607C8DF832
:1031B0000100A07C8DF80200E07C04228DF8030061
:1031C00069468B2000F03AFA03B0BDEC028B30BDAB
:1031D00008256068FDF7F0F941EC100B9FED208B9E
:1031E00053EC102B51EC180BFDF766F99FED1E1BED
:1031F00053EC112BFDF7EBF8FDF7EBF9010C8DF813
:103200000010010A8DF801108DF80200207B8DF866
:103210000300607B8DF804009FED151B9FED160BDE
:1032200000F002FF53EC102B51EC180BFDF744F9A2
:1032300041EC180BA068FDF7BFF953EC182BFDF714
:103240003BF9FDF7C6F9010C8DF80510010A8DF860
:1032500006108DF807002A46B2E70000C8000020DB
:103260000000000080847E4100000000000040401B
:103270000000000000003940000000000000004095
:1032800008B58DF800008DF801108DF802208DF83A
:10329000033004226946952000F0D0F908BD0000F3
:1032A0003EB5044600202E490090019002902078FF
:1032B0008978884201D000F055F82078C8B10128FB
:1032C00016D1A0890622010A8DF800108DF80100A0
:1032D000A07B8DF80200E07B8DF80300207C8DF848
:1032E0000400607C8DF8050069468C2000F0A6F98A
:1032F0003EBD607AF12802D0F2280AD012E04FF6E3
:10330000FF70FFF7EDFE48F20500FFF7D5FE022043
:1033100008E041F60F50FFF7E3FE41F22100FFF70E
:10332000CBFE062061880922090A8DF80010A178D9
:103330008DF8011021798DF8021061798DF8031054
:10334000A1798DF80410E1798DF80510217A8DF8B6
:1033500006108DF80700A07A8DF80800C4E7000079
:10336000C800002001B505499DF8000001228870C1
:1033700069468A2000F062F908BD0000C8000020FC
:103380000A460146002000F02BB901B5012269462A
:10339000962000F053F908BD30B51C4C05462DEDC4
:1033A000028B81B0207820B92846FFF7A9FC0120C4
:1033B00020709FED171B9FED180B00F035FE53ECAE
:1033C000102B9FED170B51EC100BFDF775F841EC2E
:1033D000180B2846FDF7F0F853EC182BFDF76CF8A6
:1033E000FDF7F7F8010E8DF80010010C8DF80110B3
:1033F000010A8DF802108DF8030004226946862028
:1034000000F01CF901B0BDEC028B30BDC8000020FB
:1034100000000000000039400000000000000040F3
:103420000000000080847E41022100F08AB8000084
:10343000084A08B505215170010C8DF80010010AE9
:103440008DF801108DF8020003226946822000F0F9
:10345000F5F808BDC800002038B50B490446052022
:103460004870962140F6AC0000F016F9200C8DF85B
:103470000000200A8DF801008DF802400322694601
:10348000822000F0DBF838BDC80000201CB5020C1B
:103490008DF80020020A8DF801208DF80200080C3A
:1034A0008DF80300080A8DF804008DF80510062237
:1034B0006946942000F0C2F80149062048701CBDFE
:1034C000C800002001B501226946842000F0B6F84A
:1034D00001490020487008BDC800002001B5012244
:1034E0006946802000F0AAF89DF80010034811B149
:1034F0000221417008BD0121FBE70000C800002047
:1035000001B5012269469F2000F098F808BD00002F
:10351000084A08B504215170010C8DF80010010A09
:103520008DF801108DF8020003226946832000F017
:1035300085F808BDC800002000221146D12000F007
:103540007DB838B50D46044601230022072104202A
:10355000FFF796FE162C01DD162404E06FF0020042
:10356000844200DA0446382140F6E70000F094F87F
:103570008DF800408DF80150022269468E2000F03F
:103580005DF838BD10B5044C08212046FDF7DFFA80
:103590000128F9D010BD00000004004870B5FDF707
:1035A00069F94FF480744FF0904500222146284677
:1035B000FDF7D6FAC021094800F0A6F80021074817
:1035C00000F0A2F8012221462846FDF7C9FAFFF7CC
:1035D000D9FFBDE87040FDF755B900003401002067
:1035E0002DE9F04115460E460446FFF7C3FB4FF4A4
:1035F00080774FF09048002239464046FDF7B0FAF8
:103600000E210D4800F080F821460B4800F07CF8B0
:10361000002405E0315D084800F076F8641CA4B28F
:10362000AC42F7D3012239464046FDF799FABDE88E
:10363000F041FFF7A7BF0000340100202DE9F0475B
:1036400016460F460546FFF795FB4FF480784FF07E
:103650009049002241464846FDF782FA29460D4826
:1036600000F052F8002405E0395D0A4800F04CF8FB
:10367000641CA4B2B442F7D3012241464846FDF788
:103680006FFA842D03D0BDE8F047FFF77BBFBDE89C
:10369000F08700003401002013B5012201A900F0D9
:1036A00001F81CBD2DE9F04115460E460446FFF712
:1036B00061FB4FF480774FF0904800223946404636
:1036C000FDF74EFA0D210F4800F01EF8210A0D48B3
:1036D00000F01AF8E1B20B4800F016F8002405E0FB
:1036E000315D084800F010F8641CA4B2AC42F7D376
:1036F000012239464046FDF733FABDE8F041FFF7B5
:1037000041BF00003401002013B582B00446002000
:103710008DF804002068016841F040010160FDF768
:10372000A9F84FF6FF700090012301AA03A92046D3
:10373000FEF798F8FDF7A6F89DF8040004B010BD58
:1037400010B5FDF719FABDE81040FEF7E0B930B545
:10375000B9B00220C1012591102126910125142123
:10376000CDE92E5122902C900721CDE930102D90DB
:103770000420329022A8FDF7C9FD00B1FEE70F201A
:10378000002433900320CDE934043694042133A877
:103790003794FDF7B3FC00B1FEE7684600950E9440
:1037A000FDF7D4FA00B1FEE74FF40070FDF792FA8E
:1037B00000B1FEE7FDF72EFD4FF47A71B0FBF1F09A
:1037C000FEF791F90420FEF781F900221146501E00
:1037D000FDF74EFA39B030BD0D48016841F4700173
:1037E00001600C48016841F0010101600021816025
:1037F0000268094B1A4002608214C260026822F417
:103800008022026081610249C003803908607047EC
:1038100088ED00E000100240FFFFF6EA0148FEF7E5
:1038200076BA0000980100202DE9F0470268264B87
:10383000264D274E274F284C4FF0804A984209D0FA
:10384000504507D0A84205D0B04203D0B84201D0BD
:10385000A04204D122F0700C4A6842EA0C02DFF860
:103860007CC0DFF87C80DFF87C9098420FD0504518
:103870000DD0A8420BD0B04209D0B84207D0A04228
:1038800005D0604503D0404501D0484503D122F41E
:103890004075CA682A434D6922F080022A430260BB
:1038A0008A68C2620A688262984207D0A04205D044
:1038B000604503D0404501D0484501D10969016305
:1038C00001214161BDE8F087002C01400004004067
:1038D00000080040000C004000340140004001405E
:1038E000004401400048014010B5846842EA0322C8
:1038F00024F47F440A432243826010BD826822F090
:1039000070020A4342F007018160704710B5036AF4
:10391000046A24F001040462846924F0F00444EA97
:10392000021423F00A020A438461026210BD10B53A
:10393000036A23F0100303628369046A23F470436B
:1039400043EA023224F0A00343EA011182610162DA
:1039500010BD90F82410C90706D001684A68836A30
:1039600022F400321A434A6090F82410890706D5E1
:1039700001684A68C36A22F480321A434A6090F8A8
:103980002410490706D501684A68036B22F4802297
:103990001A434A6090F82410090706D501684A685E
:1039A000436B22F400421A434A6090F82410C9067F
:1039B00006D501688A68836B22F480521A438A60B4
:1039C00090F82410890606D501688A68C36B22F432
:1039D00000521A438A6090F82410490611D50168F4
:1039E0004A68036C22F480121A434A60016CB1F5F4
:1039F000801F06D101684A68436C22F4C0021A4352
:103A00004A6090F82410090606D501684A68806C5F
:103A100022F4002202434A607047F8B500260446AB
:103A20004667FDF7A3F80546206800686FF07E47FB
:103A3000000708D52B4600224FF4001120460097BE
:103A400000F06AF960B92068006840070AD52B4683
:103A500000224FF480012046009700F05DF908B184
:103A60000320F8BD202084F8710084F8720084F8E7
:103A700070600020F8BD00002DE9F04104460168A7
:103A800080682369E669184363691025002733437A
:103A90001843954A0B68954E334003430B602068EA
:103AA0004168E36821F44051194341602168A069ED
:103AB000914201D0236A18438B6823F43063034397
:103AC0008B608B4B21688B4899420DD1D0F88800D0
:103AD00010F0030006D001285AD0022856D003283F
:103AE00059D157E0012556E0834B99420BD1D0F8CC
:103AF000880010F00C0047D0042849D0082845D091
:103B00000C2848D146E07D4B99420BD1D0F8880073
:103B100010F0300038D010283AD0202836D0302885
:103B200039D137E0764B99420BD1D0F8880010F0AC
:103B3000C00029D040282BD0802827D0C0282AD1E7
:103B400028E0704B99420ED1D0F8880010F44070F4
:103B50001AD0B0F5807F1BD0B0F5007F16D0B0F53D
:103B6000407F18D116E0914215D1D0F8880010F4AA
:103B7000406009D0B0F5806F0AD0B0F5006F05D075
:103B8000B0F5406F07D105E0002504E0022502E012
:103B9000042500E008255C4B00264FF400409142CC
:103BA0003DD135B1022D07D0042D07D0082D10D1FD
:103BB00007E0FDF735FB03E0184602E0FDF754FB94
:103BC000A8B3626802EB4201814202D8B0EB023F27
:103BD00001D9012775E0DFF834815DB1022D0CD0E9
:103BE000042D13D0082DF4D150082905401846F1B2
:103BF000000105E0FDF714FB0AE050084449F5E731
:103C00000023FCF7DDFAA0F5407156E0FDF72CFB30
:103C10006268010E0302500818187141F0E7E1696B
:103C20004FF6EF7881422FD1092DD2D200E048E043
:103C3000DFE805F006092005230505052600C8E78D
:103C4000FDF7EEFA01E0FDF7FDFA4100D4F80400BB
:103C500001EB5001B1FBF0F080B2A0F11001414541
:103C6000B7D84FF6F0710140C0F34200014320681D
:103C7000C16026E027496068EAE7FDF7F5FAE4E766
:103C80004FF480316068E3E7092DA2D2DFE805F048
:103C900006091E052205050525009AE7FDF7C0FA6D
:103CA00001E0FDF7CFFA0146606801EB500100BF6B
:103CB000B1FBF0F080B2A0F11001414589D8216834
:103CC000C860266638466666BDE8F081606803EB2A
:103CD0005001EDE7FDF7C8FAE5E7616800EB510038
:103CE000B0FBF1F0E6E7000000800040F369FFEF71
:103CF00000380140001002400044004000480040ED
:103D0000004C0040005000400024F400FFFC0F0075
:103D1000000024F40048E8012DE9F04198461746D8
:103D20000E460446069D1DE0681C1BD02DB1FCF715
:103D30001DFFA0EB0800A84214D92068016821F4F7
:103D4000D07101602068816821F00101816020202C
:103D500084F8710084F87200002084F87000032059
:103D6000BDE8F0812068C06936EA000004D0002078
:103D7000B842D9D00020F3E70120F9E7FEE7FEE7DB
:103D80000FB4054B10B503A9044A029801F072F86C
:103D900010BC5DF814FB0000E1510008D0000020C9
:103DA0000FB4084B10B504A902AA039801F062F8F9
:103DB000044602A9002001F001FA204610BC5DF87B
:103DC00014FB0000BD51000803B4019841000098A5
:103DD00050EAC12018BF04204A0D18BF40F001006E
:103DE00040F2FF72B2EB515F08BF40F002000128C1
:103DF00008BF052002B070472DE9F0412DED020B00
:103E00009FED3D0B2DED028B9FED3D8BDDE90254C7
:103E1000C4F30A50A0F2FF36142E37DA002E18DA57
:103E200053EC102B9DED020B51EC100BFCF720FA1C
:103E300053EC182BFCF7E6FB57D2002CBCBF4FF01D
:103E40000044002551DB54EA050018BF2E4C1BD15D
:103E50004BE02E4820FA06F704EA070028431FD05B
:103E600053EC102B9DED020B51EC100BFCF700FAFC
:103E700053EC182BFCF7C6FB37D2002C03DD4FF4B4
:103E80008010F0400444BC4300252EE0332E07DCB4
:103E9000A6F114004FF0FF3121FA00F73D4206D1A0
:103EA0009DED020BBDEC028B02B0BDE8F08153EC3E
:103EB000102B9DED020B51EC100BFCF77DFA53EC2F
:103EC000182BFCF79FFB10D2002C0DDD142E08BF21
:103ED000641C09D0C6F13400012101FA00F0284425
:103EE000A84238BF641C0546BD43CDE902549DED90
:103EF000020BD7E7000000009C7500883CE4377E89
:103F000000000000000000000000F03FFFFF0F0075
:103F10002DE9F0412DED020B9FED3D0B2DED028BB8
:103F20009FED3D8BDDE90254C4F30A50A0F2FF3649
:103F3000142E37DA002E18DA53EC102B9DED020BFD
:103F400051EC100BFCF794F953EC182BFCF75AFBCF
:103F500057D2002CA4BF0024254652DA24F000409A
:103F6000284318BF2E4C4CD01AE02E4820FA06F7F2
:103F700004EA070028431FD053EC102B9DED020BE1
:103F800051EC100BFCF774F953EC182BFCF73AFBCF
:103F900037D2002C03DA4FF48010F0400444BC43C5
:103FA00000252EE0332E07DCA6F114004FF0FF3180
:103FB00021FA00F73D4206D19DED020BBDEC028BCC
:103FC00002B0BDE8F08153EC102B9DED020B51ECDB
:103FD000100BFCF7F1F953EC182BFCF713FB10D284
:103FE000002C0DDA142E08BF641C09D0C6F1340071
:103FF000012101FA00F02844A84238BF641C05469C
:10400000BD43CDE902549DED020BD7E7000000004F
:104010009C7500883CE4377E000000000000000032
:104020000000F0BFFFFF0F002DE9F04D2DED040B58
:104030002DED0E8B96B0DDE92550279CDDF890A084
:1040400025F0004624F00048BAF1000F14BF01210A
:10405000002101EB4502FC4953184A1093422AD330
:10406000002814BF0123002303EB44030B44F7494A
:104070008B4220D358EA00019FEDF59B76D0DFF804
:10408000D8B35D4503D1BAF1000F05D188E0BAF18C
:10409000000F08BF002100D0012101EB450111F5FF
:1040A000001F08D8002814BF0121002101EB4401A2
:1040B00011F5001F0BD99DED261B9DED240B16B0AD
:1040C00000F0DABD04B0BDE8F04D00F081BE00277D
:1040D000002DBCBFE149884521DAE1498845A8BFE8
:1040E00002271CDAC3451ADCDE4901EB28511429EA
:1040F00008DDC1F1340220FA02F101FA02F2824233
:104100000DD108E058B9C1F1140228FA02F101FA00
:1041100002F2424503D101F00101C1F1020756EA62
:104120000A0124D1002C22DA002D18BF022F01D061
:10413000012F0AD0022000F097FE16B000F0A2BDB9
:1041400004B0BDE8F04D00F02BBE022000F08CFE64
:1041500000F026FE51EC100B81F0004141EC100BF9
:1041600016B000F095BD04B0BDE8F08D18E09FEDED
:10417000BEAB9FEDBF8B002871D1B848804522D1DE
:1041800005F1804010F5801008BFBAF1000F07D08C
:10419000B3450ADC002CA8BF9DED260BE0DA0DE04C
:1041A000B0EE490AF0EE690ADAE7002C06DA9DED76
:1041B000260B51EC100B81F000416FE0AE487844C3
:1041C00090ED000BCCE7D8454DD1002C48DA2EB14C
:1041D00086423AD1BAF1000F42D126E0BAF1000F7F
:1041E00013D0022000F040FE00F00EFE8DED020B19
:1041F0009DED240B8DED000B10EE900A039961F3F9
:104200001E0003909DED020BAAE78DED02AB9DED24
:10421000240B1AEE901A10EE900A8DED000B61F34C
:104220001E0003909DED020B9AE78DED028B9DED34
:10423000240B18EE901A10EE900A8DED000B61F32E
:104240001E0003909DED020B8AE709DA9DED240B19
:1042500051EC190B53EC102BFCF72EF91EE020E06B
:104260009DED240B7CE786421BDAB4F1804F0DD024
:10427000A4F10050B0F1FF5013D1002D11DB9DEDE2
:10428000240B51EC100B01F091F807E09DED240B8D
:1042900053EC102B51EC100B00F0C2BC41EC100B96
:1042A0005EE79DED240B51EC100B00F08CFFBAF192
:1042B000000FCDE90E0142D19FED710B46B3A6F17F
:1042C000E040B0F17F600CD05E4538D1002D00DABF
:1042D000A7B3022F0CBF01204FF0FF30FCF75BF9B2
:1042E000DCE7002D01DD002C0DDA002D01DD002CB6
:1042F0001FDB002D16DA002C14DB012F08BF9FED09
:10430000620B3FF42DAFB0EE4A0AF0EE6A0A27E7DF
:10431000022F18BF002D0CD0012F0AD1002DFFF65F
:104320001FAF06E0002DB8BF002C08DA012F3FF4C4
:1043300017AFB0EE480AF0EE680A11E71BE0012063
:1043400000EBE57050EA070115D0791EB0EE498AFE
:10435000F0EE698A084308BF9FED4D8B4E4800255B
:10436000804570DD4D494E48884514DDB0420DDB77
:10437000002C19DB2FE0012000F076FD16B000F0D4
:104380008DBC04B0BDE8F04D00F02EBDB34502DC9D
:10439000002C09DC1FE0864202DA002C1BDA03E065
:1043A0005E452BDD002C16DD022000F05DFD00F0E7
:1043B0002BFD8DED020B53EC1A2B51EC180BFCF777
:1043C00006F8CDE900010399019861F31E000390FE
:1043D0009DED020BC4E6022000F046FD00F024FD36
:1043E00010EE901A18EE900A8DED020B8DED008BF9
:1043F00061F31E0003909DED020BB1E69DED0E0BE7
:1044000053EC192B51EC100BFBF7D3FF9FED260B50
:10441000CDE9080153EC102B9DED080B51EC100B6E
:10442000FBF7D5FF9FED221B53EC112BFBF7C4FFCD
:104430009DED081B53EC112BFBF7C9FF9FED1E1BD5
:1044400053EC112B3CE08CE0FFFF1F00FFFF0F003F
:10445000000000000000F03F0000F03F0000F07F8F
:104460000000404301FCFFFF000000000000F07F5F
:104470000000000000000000B61300000000000073
:104480000000000000000080000000000000F0FFBD
:10449000000000000000F0BF0000E0410000F04319
:1044A000FFFFEF3F00000000000000000000D03FD1
:1044B000555555555555D53F000000000000E03FCB
:1044C000FBF77AFF9DED080B41EC1A0B53EC102B18
:1044D00051EC100BFBF77BFF53EC1A2BFBF777FF2C
:1044E00041EC1A0B9FEDFE0B53EC102B9DED080BCE
:1044F00051EC100BFBF76BFF41EC1B0B9FEDFA0B24
:1045000051EC1A0B53EC102BFBF761FF41EC1A0B2B
:104510009FEDF70B53EC102B9DED080B51EC100B9E
:10452000FBF755FF53EC1A2BFBF743FF41EC1A0B3B
:1045300051EC1B0B53EC1A2BFBF79AFE0690CDE9BE
:1045400006519DED060B53EC1B2B51EC100BFBF7AA
:1045500030FF53EC1A2BFBF72FFF41EC100B00F050
:10456000A1B90020B6F5801F0EDA9FEDE30B53ECE6
:10457000102B9DED0E0B51EC100BFBF728FFCDE936
:104580000E016FF034000E4600EB2650A0F2FF370C
:10459000C6F31300DA4940F07F6646F04056884281
:1045A000D8BF002408DDD7498142C8BF012403DCFD
:1045B0000024A6F580167F1CD348784400EBC40085
:1045C0000F9690ED00CB9DED0E0B53EC1C2B51EC98
:1045D000100BFBF7EEFE9DED0E0B41EC1B0B53ECAD
:1045E0001C2B51EC100BFBF743FE41EC100B51EC74
:1045F000190B53EC102BFBF75FFF41EC1D0B51EC3B
:104600001B0B53EC1D2BFBF7E2FE41EC1A0BBF48D2
:104610008DED10AB7844109590ED000B4FF00050ED
:1046200040EA660000EB84408DED080B00F50020A9
:1046300009909DED080B53EC1C2B51EC100BFBF774
:10464000B8FE9DED0E1B53EC112BFBF7B5FE41ECB4
:10465000100B53EC102B9DED100B51EC100BFBF7D6
:10466000B6FE9DED080B41EC1C0B53EC102B9DEDA1
:10467000100B51EC100BFBF7AAFE53EC1B2BFBF7B6
:104680009BFE53EC1C2BFBF794FE53EC1D2BFBF70E
:104690009EFE41EC1C0B53EC1A2B51EC1A0BFBF752
:1046A00096FE41EC1B0B9A480621B0EE4B0AF0EE49
:1046B0006B0A784400F0F8FAB0EE401AF0EE601A97
:1046C000B0EE41DAF0EE61DA53EC1B2B51EC1B0B30
:1046D000FBF77DFE53EC1D2BFBF779FE9DED100BD8
:1046E00041EC1B0B53EC1A2B51EC100BFBF7C0FDEC
:1046F00053EC1C2BFBF76BFE53EC1B2BFBF7B8FDAD
:104700009DED100B41EC1B0B53EC102B51EC100BDF
:10471000FBF75DFE41EC1D0B9FED7FEB53EC1E2B79
:10472000FBF7A6FD53EC1B2BFBF7A2FD0890CDE990
:1047300008519DED080B53EC1E2B51EC100BFBF7B1
:1047400038FE53EC1D2BFBF734FE53EC1B2BFBF711
:1047500033FE9DED080B41EC1D0B53EC102B9DED32
:10476000100B51EC100BFBF732FE41EC1B0B53EC22
:104770001A2B51EC1D0BFBF72AFE9DED080B41ECAB
:104780001A0B53EC102B51EC1C0BFBF720FE53ECD7
:104790001A2BFBF76DFD41EC1A0B51EC1B0B53EC84
:1047A0001A2BFBF765FD0C90CDE90C519DED0C0B20
:1047B00053EC1B2B51EC100BFBF7FBFD53EC1A2BAE
:1047C000FBF7FAFD41EC1B0B9FED550B53EC102B47
:1047D0009DED0C0B51EC100BFBF7F9FD41EC1A0BA6
:1047E0009FED510B51EC1B0B53EC102BFBF7EFFD26
:1047F00041EC1B0B9FED4E0B53EC102B9DED0C0B66
:1048000051EC100BFBF7E3FD53EC1B2BFBF730FDDA
:1048100041EC100B4848784400EBC40090ED001BBD
:1048200051EC100B53EC112BFBF722FD41EC1B0B51
:104830003846FBF7B0FECDE9080153EC1B2B51ECD9
:104840001A0BFBF715FD41EC100B3C48784400EBCC
:10485000C40090ED00CB51EC100B53EC1C2BFBF77C
:1048600007FD9DED081B53EC112BFBF701FD069096
:10487000CDE906519DED080B53EC102B9DED060B79
:1048800051EC100BFBF795FD53EC1C2BFBF791FD46
:1048900053EC1A2BFBF78DFD53EC1B2BFBF78CFD18
:1048A00041EC100B9DED261B53EC102B8DED001BE6
:1048B00000959DED260B51EC100BFBF788FD9DED4F
:1048C000000B41EC1A0B53EC102B9DED260B51EC19
:1048D000100BFBF76EFD9DED061B53EC112B2FE02B
:1048E000000000604715F73FFE822B654715F73F34
:1048F00044DF5DF80BAE543E000000000000404372
:104900008E9803007AB60B00320F0000600F000093
:104910006A0E0000000000000000000000000840D7
:10492000000000E009C7EE3FFD033ADC09C7EE3F97
:10493000F5015B14E02F3EBEF60C0000B00C000049
:10494000FBF745FD53EC1A2BFBF792FC9DED060B94
:1049500041EC1A0B53EC102B9DED000B51EC100B9E
:10496000FBF735FDCDE90C019DED0C0B51EC1A0B5D
:1049700053EC102BFBF77CFCCDE902010C46AA4955
:104980008C422FDB611A084318D19DED0C0B53ECC0
:10499000102B9DED020B51EC100BFBF70AFD41ECC7
:1049A0001B0B9FEDA30B51EC1A0B53EC102BFBF7D9
:1049B0005FFC53EC1B2BFBF725FE2DD2022000F0F1
:1049C00053FA00F021FA10EE901A18EE900A8DEDCD
:1049D000020B8DED008B61F31E0003909DED020B29
:1049E000FFF7BEBB944A24F00041914214D393498F
:1049F000214408437FF4EFAC9DED0C0B53EC102BDE
:104A00009DED020B51EC100BFBF7D3FC53EC1A2B72
:104A1000FBF7F8FD7FF6DFAC24F000408849894AB7
:104A2000002601EB205182422BDA481C4FF4801102
:104A300021FA00F02044844AC0F30A517A44A1F2DA
:104A4000FF3192ED000B814A8DED080BCA4020EA40
:104A50000202C0F3130040F48010C1F1140120FAE7
:104A600001F60992002CB8BF76429DED080B53EC7D
:104A7000102B9DED0C0B51EC100BFBF79AFCCDE9C4
:104A80000C019DED0C0B51EC1A0B53EC102BFBF7AA
:104A9000EFFB9FED6F0B0890CDE9085153EC102B05
:104AA0009DED080B51EC100BFBF791FC41EC1B0B3F
:104AB0009FED690B53EC102B9DED080B51EC100B87
:104AC000FBF785FC9DED0C0B41EC1C0B53EC102B04
:104AD0009DED080B51EC100BFBF76BFC53EC1A2B04
:104AE000FBF76AFC9FED5E1B53EC112BFBF76FFC91
:104AF00053EC1C2BFBF7BCFB41EC1A0B51EC1B0BD2
:104B000053EC1A2BFBF7B4FBCDE902019DED020B30
:104B100053EC1B2B51EC100BFBF74BFC53EC1A2BFB
:104B2000FBF74AFC9DED020B41EC1A0B53EC102BEA
:104B300051EC100BFBF74BFCCDE908014A489DED09
:104B4000080B0521784400F0AFF89DED081B51ECEF
:104B5000100B53EC112BFBF73AFC9DED021B53ECB1
:104B6000112BFBF729FCCDE906019DED020B53EC5F
:104B70001A2B51EC100BFBF72AFC53EC1A2BFBF70A
:104B800077FB9FED3B0B41EC1A0B53EC102B9DED8B
:104B9000060B51EC100BFBF70CFC9DED060B41ECEA
:104BA0001B0B53EC102B9DED020B51EC100BFBF784
:104BB0000EFC53EC1B2BFBF77FFC53EC1A2BFBF783
:104BC000F8FB9DED021B53EC112BFBF7F2FB53ECB2
:104BD000192BFBF7F1FBCDE9020101EB06500115A2
:104BE0000029C8BF039015DC9DED020B324651EC45
:104BF000100BFBF7C3FDFFF7E7F8042808BF00F030
:104C000013F932469DED020B51EC100BFBF7B6FD8C
:104C1000CDE902019DED020B51EC180B53EC102B6A
:104C2000FBF7D5FBFFF73ABB000090400000000007
:104C3000FE822B654715973C00CC904000346F3FB7
:104C400001FCFFFF0000E03F380B0000FFFF0F00FA
:104C500000000000432EE63F396CA80C615C20BECA
:104C6000EF39FAFE422EE63F080A0000000000007D
:104C70000000000000000040BDEC088BBDEC06CB3E
:104C8000FFF720BABDEC088BBDEC06CBFFF758BA96
:104C9000BDEC088BBDEC06CBFFF765BABDEC088B0D
:104CA000BDEC06CBFFF76DBB70B504462DED028B56
:104CB0004D1E00EBC500B0EE408AF0EE608A90ED2C
:104CC000000B35F0060017D053EC182B51EC100BED
:104CD000FBF77DFB41EC100B6D1E04EBC50090ED66
:104CE000001B51EC100B53EC112BFBF7C1FA41ECFC
:104CF000100B35F00600E7D1022D36D0042D1CD064
:104D0000062D1CBFBDEC028B70BD53EC182B51EC73
:104D1000100BFBF75CFB94ED0A1B53EC112BFBF71C
:104D2000A7FA53EC182BFBF752FB94ED081B53EC3E
:104D3000112BFBF79DFA41EC100B53EC182B51ECA7
:104D4000100BFBF744FB94ED061B53EC112BFBF708
:104D50008FFA53EC182BFBF73AFB94ED040B53EC52
:104D6000102BFBF785FA41EC100B53EC182B51EC90
:104D7000100BFBF72CFB94ED021B53EC112BFBF7F4
:104D800077FA53EC182BFBF722FB94ED001B53EC46
:104D9000112BFBF76DFABDEC028B41EC100B70BDD3
:104DA0009FED070B10B553EC102B9FED070B51EC4B
:104DB000100BFBF781FB41EC100B10BD0000000055
:104DC0000000000000000000000000000000F03FB4
:104DD00010B553EC112B51EC100BFBF749FA41ECD9
:104DE000100B10BD000000009FED050B10B553EC3B
:104DF000102B51EC100BFBF75FFB41EC100B10BDBF
:104E000000000000000000009FED050B10B553EC02
:104E1000102B51EC100BFBF7DAFA41EC100B10BD24
:104E200000000000000000709FED050B10B553EC72
:104E3000102B51EC100BFBF7CAFA41EC100B10BD14
:104E4000000000000000001002E008C8121F08C1A6
:104E5000002AFAD170477047002001E001C1121FFB
:104E6000002AFBD17047000001490860704700002C
:104E7000D40000202DE9FF4F8BB088460546002660
:104E800006E025280BD0DDE90D1290476D1C761C3D
:104E900028780028F5D10FB0304600F063B900241F
:104EA000A146A2460122AE4900E0044315F8013FA5
:104EB000203B02FA03F00842F7D128782A2810D0C4
:104EC0006FF02F022878A0F13001092915D809EBDD
:104ED000890102EB410144F0020400EB01096D1C61
:104EE000F0E758F8041B5FEA010903D544F40054C5
:104EF000C9F1000944F002046D1C28782E2817D14E
:104F000015F8010F44F004042A280ED06FF02F0288
:104F10002878A0F1300109290AD80AEB8A0102EBAE
:104F2000410100EB010A6D1CF2E758F804AB6D1C5F
:104F300028786C280FD006DC4C2817D068280DD0B4
:104F40006A2814D104E0742810D07A280FD10DE01B
:104F500044F400140AE044F4801401E044F44014E2
:104F60006978814202D104F580146D1C6D1C28788B
:104F7000692865D006DC00288DD0632827D06428F6
:104F800006D15DE06E2808D073282AD0752877D026
:104F9000DDE90D129047761CE0E0C4F302500228D0
:104FA00009D003280DD0D8F8001004280DD00E60C9
:104FB00008F10408D2E0D8F80010F217C1E9006245
:104FC000F6E7D8F800100E80F2E70E70F0E718F858
:104FD000041B8DF8001000208DF80100EB46012025
:104FE00003E058F804BB4FF0FF3061074FF00007B3
:104FF00001D40AE07F1C57450DDA8742FADB1BF823
:1050000007100029F6D106E07F1C8742FCDB1BF865
:1050100007100029F8D1DDE90D23A9EB070081462F
:10502000214600F0B4F83044C61904E0DDE90D1261
:105030001BF8010B90477F1EF8D22146484688E0B6
:1050400058F8040BC4F302514FF00A0B032900D1A6
:1050500000B2042900D140B2002802DA40422D21DA
:1050600002E0210505D52B218DF82410012104E053
:1050700006E0E10710D02021F6E708AF089113E021
:1050800058F8040BC4F302514FF00A0B032900D166
:1050900080B2042900D1C0B20021EEE75946FBF7E7
:1050A000C9FA303107F8011D0028F7D1ADEB070030
:1050B00000F1200B600702D524F4803401E04FF0AA
:1050C000010ADA4502DDAAEB0B0000E0002082466F
:1050D00000EB0B0108980144A9EB01000A90E003E2
:1050E00006D4DDE90D2321460A9800F050F8064465
:1050F0004FF0000908E009A911F80900DDE90D12D7
:10510000904709F10109761C08998945F3DBE00312
:105110000CD5DDE90D2321460A9800F038F8064445
:1051200004E0DDE90D1230209047761CBAF1000151
:10513000AAF1010AF5DC05E0DDE90D1217F8010B13
:105140009047761CBBF10001ABF1010BF4DC0A982F
:105150002146DDE90D2300F008F806446D1C97E6B2
:105160000928010030BCBDE8C08F2DE9F04104469C
:1051700000251E461746880404D405E03946202041
:10518000B0476D1C641EF9D52846BDE8F0812DE9B5
:10519000F041044600251E469046C80301D530273D
:1051A00000E02027880404D505E041463846B04792
:1051B0006D1C641EF9D52846BDE8F0810A68531CB1
:1051C0000B601070704782B0CDE9000121F0004003
:1051D00001909DED000B02B051EC100B70470000E8
:1051E00013B54FF6FF73012269460248FCF7BEFE75
:1051F00000981CBDD80100208AB04FF00009FBF7D1
:10520000C3FCFEF7A4FAFCF70BFFFCF787FFFCF7E3
:10521000B7FFFCF7F1FF48A0FEF7B2FD4C48FCF7E2
:10522000E7FCFBF73DFBDFF82CB14B49504ECBF8C8
:1052300006004A4801604A4981604A4941604A493A
:10524000C1604A49016131688847F1684948884727
:10525000002440F6B83005940694CDE907404FF09D
:1052600001084FF0080ACDE9018ACDE903480BF1A6
:1052700006052246E8780090F7696B7816214046CB
:10528000B847CDE90848CDE904480694CDE9004A7D
:105290000794029403940123B769EA786978184661
:1052A000B847A87870B12D480421B26A40389047B9
:1052B0005F464FF09048A8780028387806D0042838
:1052C0001FD036E0716B00208847F1E7012830D10C
:1052D00002214046FBF740FC20494FF6FF73BA8895
:1052E00040392548FCF742FE18A0FEF749FD3B78FF
:1052F00097F9022097F9011020A0FEF741FD3C70BC
:1053000017E009F10100C0B2814603461348244A60
:1053100024A14038FEF744FD10480721B26A403806
:10532000904710214046FBF717FC4FF4FA70FBF74B
:1053300004FB306E8047BEE744657669636520698B
:105340007320696E6974204F4B2E2E2E0D0A0000BB
:105350009801002000000020AD2200081801002064
:105360006D220008B9220008A12200089522000839
:105370007054000800A1BC33D80100205273736937
:1053800056616C75653A25642C536E7256616C7566
:10539000653A25642C53746174653A25640D0A00DE
:1053A0001A540008257325303364000000B52DED34
:1053B000048B83B041EC190BFBF70AFA41EC180B94
:1053C00018EE100A18EE901A8DED008B002818BF09
:1053D0000120084320F00040C0F17F6000F1E04070
:1053E000C00F14D019EE101A19EE900A8DED009B23
:1053F000002918BF0121084320F00040C0F17F6060
:1054000000F1E040C00F04BF0120FFF72DFD51EC7B
:10541000180B03B0BDEC048B00BD50494E47000C87
:105420000B0A080907060500000000000000000044
:105430000102030406070809A0860100400D0300CD
:10544000801A060000350C0040420F0080841E00C8
:1054500000093D0000127A000024F40000366E01BD
:105460000048E801006CDC020000000001020304B7
:10547000A12500087D25000815280008E927000857
:10548000B9260008112700087D28000849290008CE
:1054900079250008312A0008A9270008152A0008E4
:1054A000272A0008512700082D2A0008FF29000894
:1054B0004D270008752B000845270008792B0008A8
:1054C00049270008ED270008452800089B2500080B
:1054D000E52500087D270008432900080504030985
:1054E0000A0100060208060606060606000000007D
:1054F000000000000000F03F000000000000F83F46
:1055000000000000000000000000004003B8E23F7F
:10551000000000000000000006D0CF43EBFD4C3E31
:10552000033333333333E33FFFAB6FDBB66DDB3F26
:105530004D268F515555D53F01411DA96074D13F6E
:1055400065DBC9934A86CD3FEF4E454A287ECA3F68
:105550003E5555555555C53F93BDBE166CC166BFEA
:105560002CDE25AF6A56113FF16BD2C541BDBBBEE3
:10557000D0A4BE726937663E000000000000000043
:10558000A055000800000020D8000000484E000888
:1055900078560008D8000020C8060000584E0008C1
:1055A00000000000400000000000000000000000BB
:1055B0000000000000093D000000000000000000A5
:1055C000FF000000000000000000000000000000DC
:1055D0000000000000000000FCA9F1D24D62404034
:1055E000FCA9F1D24D623040FCA9F1D24D622040BD
:1055F000FCA9F1D24D621040FCA9F1D24D620040ED
:10560000FCA9F1D24D62F03FFCA9F1D24D623040CD
:10561000FCA9F1D24D622040FCA9F1D24D621040AC
:10562000FCA9F1D24D620040FCA9F1D24D62F03FDD
:10563000FCA9F1D24D62E03FFCA9F1D24D622040BD
:10564000FCA9F1D24D621040FCA9F1D24D6200409C
:10565000FCA9F1D24D62F03FFCA9F1D24D62E03FCE
:10566000FCA9F1D24D62D03F000000000000000014
:08567000000000000000000032
:040000050800018965
:00000001FF
